:10000000CE0F04000000000000000000000000000F
:1000100000000000000000000000000000000000E0
:1000200000000000000000000000000000000000D0
:1000300000000000000000000000000000000000C0
:1000400000000000000000000000000000000000B0
:101F9C00EF8C2000F0FF270020A0B70010002000DD
:101FAC0034A0B700400020004420B700EE0F020020
:101FBC0000000000F80F02000000000099FF07006D
:101FCC00B5FF0700CBFF0700FEFF3700FFFF370010
:101E30008A1F78008B1F78008C1F78001CC0B300AD
:101E40007BC0B3001420EF002CFE07001820EF0029
:101E50002BC0B3001420EF0028FE0700200B280041
:101E6000800578001420EF0039FE07000B5822008F
:101E70000C0020001AC0B3009FFF070038002000AC
:101E8000578D20000E20ED00FEFF3A001020ED00DF
:101E9000FCFF3A004F067800CF0578004F05780028
:041EA0000000060038
:1016FC008A1F78008B1F78000A0037000B45780092
:10170C008C45780003FF07000B0037000B45780071
:10171C008C4578009AFE07000700370010C0B30014
:10172C00050037006054E100F4FF32006154E10021
:10173C00F6FF3200F9FF3700CF0578004F0578002F
:04174C000000060093
:10132000F0FF2F002AA3B700F0FF2F002CA3B70077
:10133000F0FF2F006CA3B7003E0037001600AE0090
:10134000C702A9001600AF00C702A800520037006C
:101350001600AE00CC22A9001600AF00CC22A800D7
:101360004D0037001600AE00CC42A9001600AF00B9
:10137000CC42A800480037001600AE00DEC2A9002B
:101380001600AF00DEC2A800430037001600AE0012
:10139000DEE2A9001600AF00DEE2A8003E00370042
:1013A0001600AE00DF02A9001600AF00DF02A800A1
:1013B000390037001600AE00D202A9001600AF00B7
:1013C000D202A800340037001600AE00C182A90086
:1013D0001600AF00C182A8002F0037001600AE0033
:1013E000DE82A9001600AF00DE82A8002A003700C6
:1013F0001600AE00DEA2A9001600AF00DEA2A80013
:10140000250037001600AE00C042A9001600AF004C
:10141000C042A800200037001600AE00C062A9003C
:101420001600AF00C062A8001B00370010C0B30058
:101430001A0037006054E100C0FF32006154E1003F
:10144000C3FF32006254E100C6FF32006354E10082
:10145000C9FF32006454E100CCFF32006554E10062
:10146000CFFF32006654E100D2FF32006754E10042
:10147000D5FF32006854E100D8FF32006954E10022
:10148000DBFF32006A54E100DEFF32006B54E10002
:10149000E1FF3200E5FF370000C0B30000000600A6
:10118C00F0FF2F002AA3B700F0FF2F002CA3B7000D
:10119C00F0FF2F006CA3B7003E0037001600AE0026
:1011AC00C722A9001600AF00C722A80052003700C2
:1011BC001600AE00CC62A9001600AF00CC62A800ED
:1011CC004D0037001600AE00CC82A9001600AF000F
:1011DC00CC82A800480037001600AE00DEC2A90081
:1011EC001600AF00DEC2A800430037001600AE00A8
:1011FC00DEE2A9001600AF00DEE2A8003E003700D8
:10120C001600AE00DF02A9001600AF00DF02A80036
:10121C00390037001600AE00D222A9001600AF002C
:10122C00D222A800340037001600AE00C1A2A900DB
:10123C001600AF00C1A2A8002F0037001600AE00A8
:10124C00DF82A9001600AF00DF82A8002A00370059
:10125C001600AE00DFA2A9001600AF00DFA2A800A6
:10126C00250037001600AE00C042A9001600AF00E2
:10127C00C042A800200037001600AE00C062A900D2
:10128C001600AF00C062A8001B00370010C0B300EE
:10129C001A0037006054E100C0FF32006154E100D5
:1012AC00C3FF32006254E100C6FF32006354E10018
:1012BC00C9FF32006454E100CCFF32006554E100F8
:1012CC00CFFF32006654E100D2FF32006754E100D8
:1012DC00D5FF32006854E100D8FF32006954E100B8
:1012EC00DBFF32006A54E100DEFF32006B54E10098
:1012FC00E1FF3200E5FF370000C0B300000006003C
:101750008A1F7800080037000B0578005EFF07003D
:101760000A0037000B0578007EFF070007003700EE
:1017700010C0B300050037006054E100F6FF3200EE
:101780006154E100F7FF3200F9FF37004F057800A0
:04179000000006004F
:1014D8008A1F78008B1F78008C1F78008D1F78007A
:1014E800FC00450091037800F800450011037800DE
:1014F800F400450091027800F000450011027800E0
:10150800EC00450091017800E800450011017800E1
:10151800E4004500910078001A00780083067800FE
:10152800020678008105780000057800871F78009A
:10153800861F7800851F7800841F7800D1FC07007B
:101548008F00B10000C0B300CF0678004F067800C6
:0C155800CF0578004F0578000000060069
:10088C000000FA00CEB897003EBA97002EB9970038
:10089C009EB997004022EF004222EF00402D20002D
:1008AC007044880060402000804488000B00750074
:1008BC000C0070000D00700001007000040070004E
:1008CC0082007000202420000388700040C2A90020
:0C08DC0041E2A8000080FA0000000600C5
:101564008A1F78008B1F78008C1F78008D1F7800ED
:10157400FC00450091037800F80045001103780051
:10158400F400450091027800F00045001102780053
:10159400EC00450091017800E80045001101780055
:1015A400E4004500910078001A0078008306780072
:1015B400020678008105780000057800871F78000E
:1015C400861F7800851F7800841F7800AEFC070012
:1015D4008F00B10000C0B300CF0678004F0678003A
:0C15E400CF0578004F05780000000600DD
:101CF8008A1F78008B1F78008C1F7800120037002D
:101D08000B0578008C05780037FE070019003700AE
:101D18000B0578008C0578003DFE0700150037009C
:101D28000B0578008C05780034FE07001100370099
:101D38000B0578008C05780072FD07000D00370050
:101D480010C0B3000B0037006054E100ECFF320014
:101D58006154E100EEFF320000C2B3000054E1001C
:101D6800EFFF320000C3B3000054E100F0FF32007F
:101D7800F3FF37004F067800CF0578004F0578004D
:041D88000000060051
:1015F000FDFC0700604E2000604688000020EF00E0
:0416000000000600E0
:1009E8000800FA00604E200090448800F0FF2F00B5
:1009F800A0448800F0FF2F0060448800F0FF2F001B
:100A0800504488003022EF000000280032A2B700CE
:100A18003062A900EEFE07000001BE00803E200003
:100A28000100200074FE07000001BE00F2FE07006E
:100A38004100DE006400400080007800600047004C
:100A48000A88BE008100E900030035001018D000B4
:100A58001090D200FBFF3700829FBE008A9FBE0025
:100A68000200BE000E0190009E0190000002EB0003
:100A780076FE07004F05BE004F01BE002007980014
:100A8800310798008A9FBE000200BE000E01900048
:100A98009E0190000002EB0098FE07004F05BE0083
:100AA8008001780001027800600047005001D10001
:100AB800C080D300640047003008E1002090E100C6
:100AC8000700310061804100E0004A0080027800A0
:100AD80001037800050178008601780002003700DC
:100AE80003017800840178000280710033003A0025
:100AF800B7FE07000001BE00803E20000100200074
:100B08003DFE07000001BE00BBFE07004100DE00FD
:100B180000A0EC0080007800600047000A88BE0052
:100B28008100E900030035001018D0001090D200B1
:100B3800FBFF3700829FBE000200BE000E0190003E
:100B48009E0190000002EB0040FE07004F01BE002E
:100B580020079800310798000200BE000E0190009F
:100B68009E0190000002EB0064FE070080017800FF
:100B780001027800600047005001D100C080D30016
:100B8800640047003008E1002090E10007003100D0
:100B980061804100E0004A0080027800010378008B
:100BA800050178008601780002003700030178000B
:100BB800840178003062A80000003700610051000D
:100BC800E0805900C01188003222A90031E2A80053
:100BD8003342A80081FE070080FE07000080FA006B
:040BE8000000060003
:0C05D80000F421000100200000000600DB
:080600002000200000000600AC
:1005E40038002000578D20000E20ED00FEFF3A0059
:0C05F4001020ED00FCFF3A0000000600A3
:100400000000FA00020AB800500088000200B8009C
:1004100081004200032AB800810042000080FA00F7
:0404200000000600D2
:100454000000FA00020007007E0204000000000011
:100464000800E20002003A00100007000000060045
:10047400811F78000200E20002003D0060001000CD
:10048400E08018000600E20002003D006001110057
:10049400E0811900050007004F00E00002003B0066
:1004A40060001000E0801800000006000200070051
:1004B4000480BE00000006006022B800060220008E
:1004C4000000D0008180D2000482D2008582D20054
:1004D4000000A8000202520083825A0003003B007D
:1004E4000202420083824A000000A1000603E900E0
:1004F400F3FF3A00000006000080FA000000060046
:100504000000FA0002000700D0020400000000000E
:100514000800E20002003A00100007000000060094
:10052400839F68000200E20002003D0060001000AA
:10053400E08018000600E20002003D0060011100A6
:10054400E0811900050007004F00E00002003B00B5
:1005540060001000E0801800000006006022B8006F
:10056400060220000000D0008180D2000482D20064
:100574008582D2000000A8000202520083825A0041
:1005840003003B000202420083824A000000A100F3
:100594000603E900F3FF3A00000006000080FA00B9
:0405A400000006004D
:0816180060C0B30000000600F1
:10160400F8FC0700604E2000604688000020EF00D0
:0416140000000600CC
:10130C00BEFC0700E0402000604688000020EF0093
:04131C0000000600C7
:100608000800FA00E040200090448800F0FF2F0026
:10061800A0448800F0FF2F0060448800F0FF2F00FE
:10062800504488002022EF000000280022A2B700D2
:100638002062A900E6FF07000001BE00803E2000FE
:10064800010020006CFF07000001BE00EAFF070060
:100658004100DE0064004000800078006000470030
:100668000A88BE008100E900030035001018D00098
:100678001090D200FBFF3700829FBE008A9FBE0009
:100688000200BE000E0190009E0190000002EB00E7
:100698006EFF07004F05BE004F01BE0020079800FF
:1006A800310798008A9FBE000200BE000E0190002C
:1006B8009E0190000002EB0090FF07004F05BE006E
:1006C8008001780001027800600047005001D100E5
:1006D800C080D300640047003008E1002090E100AA
:1006E8000700310061804100E0004A008002780084
:1006F80001037800050178008601780002003700C0
:1007080003017800840178000280710033003A0008
:10071800AFFF07000001BE00803E2000010020005E
:1007280035FF07000001BE00B3FF07004100DE00EF
:1007380000A0EC0080007800600047000A88BE0036
:100748008100E900030035001018D0001090D20095
:10075800FBFF3700829FBE000200BE000E01900022
:100768009E0190000002EB0038FF07004F01BE0019
:1007780020079800310798000200BE000E01900083
:100788009E0190000002EB005CFF070080017800EA
:1007980001027800600047005001D100C080D300FA
:1007A800640047003008E1002090E10007003100B4
:1007B80061804100E0004A0080027800010378006F
:1007C80005017800860178000200370003017800EF
:1007D800840178002062A800000037006100510001
:1007E800E0805900401188002222A90021E2A800D7
:1007F8002342A80079FF070078FF07000080FA006D
:0408080000000600E6
:101EA4008A1F78008B1F78002B0D28002A08280031
:101EB40037FE07002BC0B300BA8420003FFE0700A2
:101EC4002BC0B3002A8320003CFE07002BC0B300C4
:101ED4000A80200039FE070038002000578D2000BA
:101EE4000E20ED00FEFF3A001020ED00FCFF3A004A
:0C1EF400CF0578004F05780000000600C4
:101794008A1F78008A1F78000B05780047FF07002E
:1017A4004F0578003DFF07001AC0B30010448000C5
:0C17B400000001004F0578000000060056
:1014C0001A00780020448800E200450011007800EE
:0814D000304488000000060012
:1014A000780045006E00400010007800404488003D
:1014B0006400450010007800104488000000060019
:101620001400AE00CB02A9001400AF00CB02A8004A
:0416300000000600B0
:1016C0001400AE00D022A9001400AF00D022A80060
:0416D0000000060010
:1016AC001400AE00D042A9001400AF00D042A80034
:0416BC000000060024
:1016E8001400AE00E2C2A9001400AF00E2C2A800D4
:0416F80000000600E8
:1016D4001400AE00E2E2A9001400AF00E2E2A800A8
:0416E40000000600FC
:101698001400AE00E302A9001400AF00E302A800A2
:0416A8000000060038
:101648001400AE00D602A9001400AF00D602A8000C
:041658000000060088
:101634001400AE00C582A9001400AF00C582A80042
:04164400000006009C
:10165C001400AE00E282A9001400AF00E282A800E0
:04166C000000060074
:101684001400AE00E2A2A9001400AF00E2A2A80078
:04169400000006004C
:101670001400AE00C442A9001400AF00C442A80088
:041680000000060060
:101178001400AE00C462A9001400AF00C462A80045
:04118800000006005D
:100C64001400AE00CB22A9001400AF00CB22A800D0
:040C74000000060076
:100C50001400AE00D062A9001400AF00D062A8005A
:040C6000000006008A
:100C78001400AE00D082A9001400AF00D082A800F2
:040C88000000060062
:100CA0001400AE00E2C2A9001400AF00E2C2A80026
:040CB000000006003A
:100C8C001400AE00E2E2A9001400AF00E2E2A800FA
:040C9C00000006004E
:100C00001400AE00E302A9001400AF00E302A80044
:040C100000000600DA
:100BEC001400AE00D622A9001400AF00D622A80033
:040BFC0000000600EF
:100C3C001400AE00C5A2A9001400AF00C5A2A80004
:040C4C00000006009E
:100C28001400AE00E382A9001400AF00E382A8001C
:040C380000000600B2
:100C14001400AE00E3A2A9001400AF00E3A2A800F0
:040C240000000600C6
:1010F8001400AE00C442A9001400AF00C442A80006
:0411080000000600DD
:1010E4001400AE00C462A9001400AF00C462A800DA
:0410F40000000600F2
:1017C0000200FA008A1F78008A007800D00020000A
:1017D00000479800A000200010479800250037001F
:1017E0000105780049FE0700290037000100780054
:1017F0001004E00008003200801F78008A9FBE00BD
:101800000005780041FE07004F05BE004F0078003C
:101810000020EC00F6FF37001D00370001007800C3
:101820001004E00008003200801F78008A9FBE008C
:101830000005780035FE07004F05BE004F00780018
:101840000020EC00F6FF3700600047008A9FBE00D2
:10185000000578002DFE07006100470000057800B4
:101860002AFE07004F05BE000900370060C0B30024
:1018700007003700605CE100D9FF3200615CE100E5
:10188000DAFF3200625CE100E4FF3200F7FF37006C
:0C1890004F0578000080FA000000060000
:10110C008A1F78001A85FB006046800000000100F1
:0C111C000020EF004F05780000000600E6
:10080C000000FA0065FF07000080FA0000000600F7
:1005A8000000FA0040C2A9004022AE000100370056
:1005B800FDFF37004A1288004002AF0001003700F3
:1005C800FDFF37004882BF000080FA0000000600E7
:100838000000FA00F9FE07000080FA000000060038
:100424000000FA0060C2A9006022AE00010037009B
:10043400FDFF37004A1388006002AF000100370057
:10044400FDFF37006882BF000080FA00000006004C
:10081C000000FA002302AF0001003700FDFF370093
:0C082C002A1188000080FA00000006007D
:1009CC000000FA003302AF0001003700FDFF3700D2
:0C09DC00AA1188000080FA00000006004C
:101F00008A1F78008B1F78008C1F78009FFF0700C6
:101F1000B0448800C144880038002000578D20005C
:101F20000E20ED00FEFF3A001020ED00FCFF3A000D
:101F3000AC892000BA448000CB44800057FE0700E3
:101F40001BC0B3001A8720001DFE07001BC0B30092
:101F5000AA8920001AFE07002BC0B3004A86200081
:101F600017FE07002BC0B3009A81200014FE070063
:101F700068062000B79C2B000E20ED00FEFF3A0003
:101F80001020ED00FCFF3A00000000004F06780032
:0C1F9000CF0578004F0578000000060027
:101D8C000600FA000020EF000220EF000007980088
:101D9C0011079800B1FC070020079800C6FC07004B
:101DAC000040E2000C003A00AE009000F0FF210071
:101DBC008080600000002100008050008000EB005B
:101DCC004BFC0700D2CC2C00C3C42300B6FB07008D
:101DDC0000079800110798000200200083242400BB
:101DEC000E0090009E0090003CFC07000000E000FC
:101DFC000060EF00010034000060EC000040E200E5
:101E0C00040032000020EF000220EF0000079800D1
:101E1C00110798000E0090009E0090000080FA00C0
:041E2C0000000600AC
:101068000200FA008A1F78008B1F78001420EF0016
:101078001044800000000100600047002B002000A1
:1010880000057800EEFD07001AC0B3001044800088
:1010980000000100600047001081FB00C810DD005F
:1010A8000020EC001080FB0000807000CF05780065
:0C10B8004F0578000080FA0000000600E0
:100848000A0178008B0078006180550080057800E7
:100858000200E2000A003200821F78008A9FBE0070
:100868001420EF0031448000010001004F05BE0054
:100878004F017800004978000420EC00F1FF3700B0
:040888000000060066
:1010C400E8FF07004F00DE006000E10002003A0084
:1010D4000020EF000100370010C0B300000006003C
:100EFC000000FA00020007003008040000000000A7
:100F0C000400E20006003A000005EB000200E200DB
:100F1C000F003E000000E200270032000C003700FA
:100F2C00A10088000200E2000400350008003C002B
:100F3C000000E200200032000500370060001000C5
:100F4C00E080180002003B0001F02C001A00370072
:100F5C000084BE006011B8006B0920000982CF002C
:100F6C00020039000882CF000441B00069425200EF
:100F7C000E00320008003B008281710061016400A8
:100F8C008904D1000884D3008B05E8000442E800F2
:100F9C00F9FF3A00050037000804440089844C002E
:100FAC008B05E9000442E900FBFF3A00030007004F
:100FBC000AF0A70003E0A800000006008100200052
:100FCC00618055000B003D000B00200061FE2F00DE
:100FDC000100E1001D003400828171006101640098
:100FEC008904D1000884D3000000E800FAFF3A001D
:100FFC0071002000610064000300700002006000BA
:10100C000900320061044400E0844C000988A5000A
:10101C00050032008B05E8006808E10002003A0088
:10102C008904D1000884D300F20F20000258E1009B
:10103C0005003D00C75DDD00F907B2008980750031
:10104C0008008800000006000BF827001B00880031
:0C105C00000005000080FA000000060003
:100CB4000000FA00020007007007040000000000B2
:100CC400889FBE008A9FBE008C1F780030000700FA
:100CD4003700330003866C006450E10024003200C6
:100CE4006420E100270032006150E100220032005C
:100CF4006120E100210032008B854200EB07B10046
:100D04000134B800003AB8000804420089844A005B
:100D1400013AB8000030B8008880400009014A0058
:100D240004003300000040008180480002014900B3
:100D34008B05E900C909DD00830170000100320060
:100D440013002000C814DE004814DD004709DE004B
:100D54001200B200C808DE000884700024000700F6
:100D640001F0A1000CF0A70003E0A800190037006F
:100D74006120E1001B0032000881BE000280BE0039
:100D8400F7FF37006150E100FCFF3A00150037001F
:100D94000084BE003C0007000083BE000485BE0042
:100DA4000280BE0038000700844F75000000060072
:100DB4000280BE006450E100050036006420E100BA
:100DC400020036000968A30001003A000880BE0052
:100DD40002C0A8004F0678004F05BE004F04BE00B5
:100DE40000000600F0FF2F00F1FF2700F9FF370095
:100DF40081002000618055000B003D000B002000A5
:100E040061FE2F000100E1001D00340082817100A9
:100E1400610164008904D1000884D3000000E80063
:100E2400FAFF3A00710020006100640003007000C2
:100E3400020060000900320061044400E0844C00B8
:100E44000988A500050032008B05E8006808E10068
:100E540002003A008904D1000884D300F20F200074
:100E64000258E10005003D00C75DDD00F907B2004E
:100E74008980750008008800000006000BF8270030
:100E84001B00880000000500C70ADE00F107B2005D
:100E9400F50FB20008003200E1CF42000200320038
:100EA40002E0A80024000500810F70000100320058
:100EB4000408050044000500810F700002003A0098
:100EC400140005008502E9000000400081C04800CC
:100ED400FCFF3B0002E0A800240005000080FA00AB
:040EE4000000060004
:100EE8000000FA00F4FF2F007DFE07000080FA00E2
:040EF80000000600F0
:1008E8000000FA0002000700E20404000000000013
:1008F800841F7800140007004F00780011003300AF
:10090800F0FF2F00838F6C0006003B000405650094
:100918000A00A7000800370009F0A6001000200010
:1009280008003700820F5400838F5C0003003900F1
:100938001000200001003E000000200009F0A70080
:100948000000EA00000006000084BE000600070060
:100958000083BE000485BE000280BE0002000700BE
:10096800844F750000000600C70ADE00F107B200D8
:10097800F50FB20008003200E1CF42000200320059
:1009880002E0A80024000500810F70000100320079
:100998000408050044000500810F700002003A00B9
:1009A800140005008502E9000000400081C04800ED
:1009B800FCFF3B0002E0A800240005000080FA00CC
:0409C8000000060025
:10189C000600FA008A1F78008B1F780000002000D9
:1018AC004047980000002000504798000A07980015
:1018BC001B0798000E0190009E019000F0FF2F0076
:1018CC00F1FF2F000010E1000198E10005003A0043
:1018DC00DB8720000C05780010FE070030C0B30039
:1018EC00FE00370016C0B3006000470063004000E4
:1018FC001040780000E0AE000D003700600047009B
:10190C00630140009280FB0000082000008068000A
:10191C0000497800E1404300D0C2B300004E78008B
:10192C006100460000067800014278000100370093
:10193C00064278000E0090009E0090006000E100CE
:10194C006088E10005003A00FB8620000C05780059
:10195C00F2FD07000020EF00E00037000E019000C0
:10196C009E0190000000200001F827000010E1000B
:10197C000198E10005003A00BB8620000C057800B8
:10198C00E6FD070004407800D40037008C1F780077
:10199C008A9FBE000200200003F823000E00900076
:1019AC009E009000ECFD07000000E0000060EF00DE
:1019BC0001003D000060EC004F05BE004F067800B2
:1019CC000040E2000F0032008C1F78008A9FBE009E
:1019DC000E0090009E0090000200200003122400D4
:1019EC00B1FC07004F05BE004F06780000079800B9
:1019FC0011079800DE4090006500470061C8500058
:101A0C00E2FF37008C1F78008A9FBE000200200086
:101A1C00031224000E0090009E0090002FFD070082
:101A2C000000E0000060EF00010035000060EC00F9
:101A3C004F05BE004F0678000040E2000F00320058
:101A4C008C1F78008A9FBE000E0090009E009000B4
:101A5C00D2CC2C00C3DC230093FC07004F05BE0046
:101A6C004F0678000007980011079800DE409000A0
:101A7C006500470061C84000E2FF37006001470085
:101A8C003200D000A280D200000798001107980005
:101A9C00600047006300400090407800F0C7B3003E
:101AAC0000C1500060004700E300400010C0B300CC
:101ABC00804878008281FB00600147001200BE0064
:101ACC008301E900030035000000D0008180D200C2
:101ADC00FBFF3700000798001107980060004700D3
:101AEC0063004000010320001080FB0000804000D8
:101AFC00004E780061004600000678005E409000C1
:101B0C006104E100040035005E4090006604E100D1
:101B1C0001003C0006003700E0C2B300004E780024
:101B2C00610046000006780010C0B30040479800E2
:101B3C0065C0B300602CE1002C003200600047004F
:101B4C00E30040000020EF00804878006000470070
:101B5C00B001D0002082D2008301D0000482D200D8
:101B6C006001470032804100A2004A000007980043
:101B7C0011079800600147003200D000A280D2000B
:101B8C0000079800110798006000470063004000B0
:101B9C00010320001080FB0000804000004E780004
:101BAC0061004600000678004E4090006004E100A1
:101BBC000B003A005E4090000060ED00504798002A
:101BCC006004E10006003A00E0C2B300004E780069
:101BDC00610046000006780010C0B3004047980032
:101BEC0061C0520080427800D2FF3700F0FF2F0016
:101BFC00000046009040780000C3B300000CE100E8
:101C0C0003003A006100560000067800F7FF370029
:101C1C00F0FF2F000000460090407800E0C2B300B7
:101C2C00000CE10002003A0061005600000678004A
:101C3C005E4090006004E1002500320050C6B30005
:101C4C00004E780061004600000678005E4090006F
:101C5C006004E10007003D00D0C2B300004E7800E4
:101C6C006100460000067800DE40900065004700E9
:101C7C0060C81000DE4190005E4090006904E100F5
:101C8C000A0036000380FB00A200200011000900AE
:101C9C000200D80080007800000320000100400002
:101CAC00004E780061004600000678000380FB00BF
:101CBC00A2002000110009000200D800000320003F
:101CCC0001004000004E78006100460000067800DC
:101CDC000020EF00004E78000020EF00CF057800C8
:0C1CEC004F0578000080FA0000000600A0
:101128000000FA000A00780000017800E1014000A0
:101138008B007800618045008005780011497800AF
:101148001204E0000200320003007800F6FF3700C6
:0C1158000A0078000080FA000000060089
:101164000000FA0014002000DEFD07000080FA00F1
:041174000000060071
:101FDC000A8020000B002000660009000B1D780011
:041FEC0000000600EB
:101FF00001802000000028003F000900B018780090
:08200000B05878000000060052
:020000040001F9
:100000002D2D00002D2D00002D2D00002D2D000088
:100010002D2D00002D2D00002D2D00002D2D000078
:100020002D2D00002D2D00002D2D00002D2D000068
:10003000002D00002D2D00002D2D00002D2D000085
:100040002D2D00002D2D00002D2D00002D2D000048
:100050002D2D00002D2D00002D2D00002D2D000038
:040060002D0000006F
:100064002020000020200000202000002048000064
:10007400616C00006C200000437500007272000087
:10008400656E000074200000202000002020000085
:10009400002D00002D2D00002D2D00002D2D000021
:1000A4002D2D00002D2D00002D2D00002D2D0000E4
:1000B4002D2D00002D2D00002D2D00002D2D0000D4
:0400C4002D0000000B
:1000C800205B000020410000205D00000049000086
:1000D8004E4600000030000000200000437500007C
:1000E80072720000656E0000742000003A20000063
:0C00F800004E0000614E000000000000FF
:10010400100B0000600B0000560B0000740B000085
:100114006A0B00004C0B0000240B00001A0B0000BB
:100124002E0B0000420B0000380B0000BC0800003E
:10013400FFFF0000FFFF0000FFFF0000FFFF0000C3
:10014400FFFF0000FFFF0000FFFF0000FFFF0000B3
:10015400FFFF0000FFFF0000FFFF0000FFFF0000A3
:10016400200000000000000000000000000000006B
:100174001000000000000000020000000000000069
:10018400000000000000000000000000000000006B
:10019400000000000000000000010000000000005A
:0801A40006040000D402000073
:0200000401F009
:20000000CF000000CF00000007000000A2000000850000007F000000E7000000C1000000ED
:00000001FF
