:10000000FCFF0320A11C0000591C0000591C00002B
:10001000591C0000591C0000591C0000591C00000C
:10002000591C0000591C0000591C0000591C0000FC
:10003000591C0000591C0000591C0000591C0000EC
:10004000591C0000591C0000591C0000591C0000DC
:10005000591C0000591C0000591C0000591C0000CC
:10006000591C0000591C0000591C0000591C0000BC
:10007000591C0000591C0000591C0000591C0000AC
:10008000591C0000591C0000591C0000591C00009C
:10009000591C0000591C0000591C0000591C00008C
:1000A000591C0000591C0000591C0000591C00007C
:1000B000591C0000591C0000591C0000591C00006C
:1000C000591C0000591C0000591C0000591C00005C
:1000D000591C0000591C0000591C0000591C00004C
:1000E000591C0000591C0000591C0000591C00003C
:1000F000591C0000591C0000591C0000591C00002C
:10010000591C0000591C0000591C0000591C00001B
:10011000591C0000591C0000591C0000591C00000B
:10012000591C0000591C0000591C0000591C0000FB
:10013000591C0000591C0000591C0000591C0000EB
:10014000591C0000591C0000591C0000591C0000DB
:10015000591C0000591C0000591C0000591C0000CB
:10016000591C0000591C0000591C0000591C0000BB
:10017000591C0000591C0000591C0000591C0000AB
:10018000591C0000591C0000591C0000591C00009B
:10019000591C0000591C0000591C0000591C00008B
:1001A000591C0000591C0000591C0000591C00007B
:1001B000591C0000591C0000591C0000591C00006B
:1001C000591C0000591C0000591C0000591C00005B
:1001D000591C0000591C0000591C0000591C00004B
:1001E000591C0000591C0000591C0000591C00003B
:1001F000591C0000591C0000591C0000591C00002B
:08020000591C0000591C00000C
:101CA00000F010F8FFF7DCFF00F01EFBFFF7EEFF7F
:101CB00000F0DAFAFFF7A8FFFFF736FFFFF760FF43
:041CC000FCE7FEE758
:101AB80081B01CF8019B0BF8019BBBEB0A0FF8D116
:041AC80001B07047B2
:101AE80081B04FF000094FF0000CBDEB0A0F04DC89
:101AF800BDEB0B0F01DBD446EA464BF8049BBBEB6E
:101B08000A0FFAD1BCEB0A0F05DDE246D9F800B09E
:0A1B18000BF1040BF1E701B0704778
:101C080081B0CDF800E0012207210020FFF7DEFEB9
:101C1800002202210020FFF7D9FE0C4801460020CF
:101C2800FFF72EFF42F280510120FFF705FF40F633
:101C3800FE07C0F23D0700BF00BF7F1EFDD100BFF9
:101C480000BF00BFDDF800E001B070474822000087
:1019D40081B0CDF800E05FFA81FA5FFA82FB0FE094
:1019E4005FFA8BF15FFA8AF0FFF740FD0DE05FFAD2
:1019F4008BF15FFA8AF0FFF773FC06E0012004E044
:101A04000028EDD00128F2D0F8E7DDF800E001B0BD
:021A1400704719
:1014700081B0CDF800E091E0012904D110215A4853
:10148000FFF764FC03E010215748FFF775FCA5E067
:10149000012904D101215448FFF758FC03E0012140
:1014A0005148FFF769FC99E0012904D101214F4817
:1014B000FFF74CFC03E001214C48FFF75DFC8DE099
:1014C000012904D104214A48FFF740FC03E004212C
:1014D0004748FFF751FC81E0012904D1102144481D
:1014E000FFF734FC03E010214148FFF745FC75E0AD
:1014F000012904D120213E48FFF728FC03E02021E8
:101500003B48FFF739FC69E0012904D10121394842
:10151000FFF71CFC03E001213648FFF72DFC5DE0DE
:10152000012904D110213448FFF710FC03E01021F9
:101530003148FFF721FC51E0012904D140212F4817
:10154000FFF704FC03E040212C48FFF715FC45E0C1
:10155000012904D180212948FFF7F8FB03E080210D
:101560002648FFF709FC39E0012904D104211F486E
:10157000FFF7ECFB03E004211C48FFF7FDFB2DE027
:10158000012904D108211948FFF7E0FB03E00821F5
:101590001648FFF7F1FB21E0012020E000283FF48E
:1015A0006BAF01283FF474AF02283FF47DAF0328EE
:1015B0003FF486AF04283FF48FAF05283FF498AF7F
:1015C00006283FF4A1AF0728AAD00828B4D00928DC
:1015D000BED00A28C8D00B28D2D0DDE70020DDF825
:1015E00000E001B0704700BF00C00540009005401A
:1015F0000080054000B0054000D0054000A0054037
:100D4C0081B0CDF800E0002440F240031BB240F229
:100D5C00001212B21A4393B2002210B4FFF730FC07
:0A0D6C0001B0DDF800E001B07047AF
:1005CC0082B0CDF800E05FFA81F8D5B29FB29DF809
:1005DC000830F54C00EA0404A1462046FFF70EFE55
:1005EC00F24CA54208D109F580666FEA0805EDB218
:1005FC0034682C40346008E0ED4CA54205D109F577
:10060C0080652C6844EA08042C6040F2010407EA77
:10061C000404A4B234B109F5A2652C6844EA0804B8
:10062C002C6007E009F5A2666FEA0805EDB23468A4
:10063C002C40346040F2020407EA0404A4B234B142
:10064C0009F214552C6844EA08042C6007E009F2FE
:10065C0014566FEA0805EDB234682C40346040F251
:10066C00080407EA0404A4B234B109F20C552C684E
:10067C0044EA08042C6007E009F20C566FEA0805FE
:10068C00EDB234682C40346040F2100407EA0404E4
:10069C00A4B234B109F5A0652C6844EA08042C60B6
:1006AC0007E009F5A0666FEA0805EDB234682C4046
:1006BC00346040F2200407EA0404A4B234B109F215
:1006CC0004552C6844EA08042C6007E009F204562F
:1006DC006FEA0805EDB234682C40346040F24004F7
:1006EC0007EA0404A4B234B109F5A1652C6844EA04
:1006FC0008042C6007E009F5A1666FEA0805EDB265
:10070C0034682C40346041F2000407EA0404A4B2BB
:10071C00012C13D042F2000407EA0404A4B2012C09
:10072C000CD044F2000407EA0404A4B2012C05D056
:10073C00DEB24B46B8B25FFA88F53CE000200026EA
:10074C00DAB2BBB207465FFA88F04946082E13D2DC
:10075C0020FA06F4E4B204F00104E4B24CB17500E2
:10076C002DB2032424B2AC4024B247EA04052F4630
:10077C00FFE7761CF6B2E9E701F6C476FD43346870
:10078C002C40346001F23C56C543EDB234682C4029
:10079C00346001F5A166C543EDB234682C40346079
:1007AC0001F20456C543EDB234682C403460C5B236
:1007BC0098B20B46D6B2002141F2000400EA0404C0
:1007CC00A4B23CB300220F46E9B2082A13D221FA94
:1007DC0002F4E4B204F00104E4B24CB155002DB2C1
:1007EC00012424B2AC4024B247EA04052F46FFE7AB
:1007FC00521CD2B2E9E703F6C4752C683C432C605A
:10080C0003F5A1652C680C432C603D461F4683B252
:10081C00C8B203E01F4683B2E8B20D4642F20004B0
:10082C0003EA0404A4B26CB30022A8463946082A91
:10083C0013D220FA02F4E4B204F00104E4B24CB195
:10084C0055002DB2032424B2AC4024B248EA04056E
:10085C00A846FFE7521CD2B2E9E701F6C4752C6832
:10086C0044EA08042C6001F23C552C6804432C60CB
:10087C0001F5A1652C6804432C60F7B20E46C2B298
:10088C0098B205E00197C2B298B2F7B2A846019EA1
:10089C0044F2000400EA0404A4B284B30023D1B2ED
:1008AC00082B14D221FA03F4E4B204F00104E4B2EC
:1008BC0054B15D002DB2032424B2AC4024B248EAFA
:1008CC00040422469046FFE75B1CDBB2E8E706F621
:1008DC00C4752C6844EA08042C6006F23C552C685C
:1008EC000C432C6006F5A1652C680C432C6006F2B9
:1008FC0004552C680C432C60FBB2324602E0D1B29A
:10090C003246FBB240F2800400EA0404A4B274B193
:10091C0040F2400400EA0404A4B22CB102F5A36531
:10092C002C680C432C6001E00120FAE006E002F593
:10093C00A366CD43EDB234682C40346040F2001411
:10094C0000EA0404A4B22CB102F21C552C680C432E
:10095C002C6006E002F21C56CD43EDB234682C40FC
:10096C00346040F2002400EA0404A4B2002C3AD013
:10097C00104CA24240F2000500D001250E4CA242C0
:10098C0040F2000400D0012425400C4CA24240F25D
:10099C00000400D001242540094CA24240F200047E
:1009AC0000D0012425400DE000F0FFFF0000000006
:1009BC000100000000C0054000B00540009005405B
:1009CC0000100640594CA24240F2000400D0012411
:1009DC0005EA04040CB10120A3E002F5A5652C681E
:1009EC000C432C602AE0524CA24240F2000500D18C
:1009FC000125504CA24240F2000400D101242543B1
:100A0C004D4CA24240F2000400D1012425434B4C32
:100A1C00A24240F2000400D101242543434CA242DF
:100A2C0040F2000400D1012445EA040434B102F57B
:100A3C00A566CD43EDB234682C40346040F600041A
:100A4C0000EA0404A4B22CB102F5A6652C680C4390
:100A5C002C6006E002F5A666CD43EDB234682C405E
:100A6C00346040F2004400EA0404A4B22CB102F554
:100A7C0084652C680C432C6006E002F58466CD433B
:100A8C00EDB234682C4034600BB9002049E00F2BD8
:100A9C0001D9012045E0002700208DF80430C3B2B5
:100AAC0010469DF80420082B12D221FA03F4E4B26C
:100ABC0004F00104E4B244B19D002DB24FF00F04D8
:100ACC00AC4047EA04052F46FFE75B1CDBB2EAE7C4
:100ADC0000F22C56FD4334682C4034600026002371
:100AEC008DF80430CBB29DF80410082913D223FAE8
:100AFC0001F4E4B204F00104E4B24CB1D5B28C00C0
:100B0C0024B205FA04F446EA040425462E46FFE70F
:100B1C00491CC9B2E9E700F22C552C6834432C600F
:100B2C000020DDF800E002B0704700BF0050064026
:100B3C0000C0054000B00540009005400010064084
:1002080081B0664900EA010108467DE06449096851
:1002180041F0010262490A60BEE06149096841F0A3
:1002280002025F490A60B7E05D49096841F00402CB
:100238005B490A60B0E05A49096841F00802584928
:100248000A60A9E05649096841F0100254490A6059
:10025800A2E05349096841F0200251490A609BE035
:100268004F49096841F040024D490A6094E04C4901
:10027800096841F080024A490A608DE048490968E6
:1002880041F4807246490A6086E04549096841F4AC
:10029800007243490A607FE04149096841F480627D
:1002A8003F490A6078E03E49096841F400623C49E8
:1002B8000A6071E03A49096841F4805238490A6095
:1002C8006AE03749096841F4005235490A6063E039
:1002D8003349096841F4804231490A605CE0304999
:1002E800096841F400422E490A6055E02C49096822
:1002F80041F480322A490A604EE02949096841F4EC
:10030800003227490A6047E0264988423FF47EAF19
:10031800254988423FF481AF244988423FF484AF9D
:10032800234988423FF487AF224988423FF48AAF85
:10033800214988423FF48DAF204988423FF490AF6D
:100348001F4988423FF493AF1E4988423FF496AF55
:100358001D4988423FF499AF1C4988423FF49CAF3D
:100368001B4988423FF49FAF1A4988423FF4A2AF25
:10037800194988423FF4A5AF184988423FF4A8AF0D
:10038800174988423FF4ABAF164988423FF4AEAFF5
:10039800154988423FF4B1AF01B0704700F0FFFF44
:1003A80008E60F40008005400090054000A0054089
:1003B80000B0054000C0054000D0054000E0054001
:1003C80000F00540000006400010064000200640EE
:1003D80000300640004006400050064000600640DD
:0C03E800007006400080064000900640B7
:100D780081B0CDF800E0002440F240031BB240F2FD
:100D8800001212B21A4393B2012210B4FFF71AFCF0
:0A0D980001B0DDF800E001B0704783
:1012E40081B0CDF800E091E0012904D120215A48D1
:1012F400FFF72AFD03E020215748FFF73BFDA5E057
:10130400012904D102215448FFF71EFD03E0022104
:101314005148FFF72FFD99E0012904D120214F48BE
:10132400FFF712FD03E020214C48FFF723FD8DE079
:10133400012904D104214A48FFF706FD03E00421F2
:101344004748FFF717FD81E0012904D110214448E3
:10135400FFF7FAFC03E010214148FFF70BFD75E0AD
:10136400012904D120213E48FFF7EEFC03E02021AF
:101374003B48FFF7FFFC69E0012904D10221394809
:10138400FFF7E2FC03E002213648FFF7F3FC5DE0DF
:10139400012904D140213348FFF7D6FC03E0402162
:1013A4003048FFF7E7FC51E0012904D110212E4811
:1013B400FFF7CAFC03E010212B48FFF7DBFC45E0F4
:1013C400012904D120212848FFF7BEFC03E0202195
:1013D4002548FFF7CFFC39E0012904D104211F4837
:1013E400FFF7B2FC03E004211C48FFF7C3FC2DE027
:1013F400012904D108211948FFF7A6FC03E00821BC
:101404001648FFF7B7FC21E0012020E000283FF454
:101414006BAF01283FF474AF02283FF47DAF03287B
:101424003FF486AF04283FF48FAF05283FF498AF0C
:1014340006283FF4A1AF0728AAD00828B4D0092869
:10144400BED00A28C8D00B28D2D0DDE70020DDF8B2
:1014540000E001B0704700BF00C0054000900540A7
:0C1464000080054000B0054000A00540DD
:101A880081B0CDF800E009E00846FFF711FC0AE054
:101A98000846FFF7D5FD06E0012004E00028F3D052
:0E1AA8000128F5D0F8E7DDF800E001B0704746
:1012B80081B0CDF800E000F208010B68011D0A6852
:1012C8000168084691B29AB2034BFFF74BFE002023
:0C12D800DDF800E001B070478820000045
:100F6C008AB0CDF800E008901846ADF824200DF1B9
:100F7C00140B0BF10B0ADFF82CC100F097FDADF848
:100F8C000410FFF767FABDF8041001256DB2464C4A
:100F9C002560464C206800256DB2454C2560454CBB
:100FAC002160BDF82450444C2560444D444C2560D0
:100FBC00444D454C2560FFF7BBFA40F2E83400FB8A
:100FCC0004F5089CB5FBF4F4029429B9029C022C9C
:100FDC0001DA0224029404E0029C0C2C01DA0C24A9
:100FEC000294022424B2ADF81040BDF91040B4F1C3
:100FFC00FF0F41DA002212B210B2B0F5807F30DA66
:10100C00BDF91050441C24B26543029C641B03942C
:10101C00002C04DA039D4FF0FF346C43039410B999
:10102C00039C069404E0039D069CAC4200DA18E095
:10103C00039D059CAC4202DC039C04B107E0039CBD
:10104C000594BDF910408DF81C408DF81D00059CD1
:10105C001CB901248DF81E4003E0441C22B210B2CE
:10106C00CBE79DF81E40012C00D105E0BDF91040E6
:10107C00A41CADF81040B8E79DF81C50134C25602B
:10108C009DF81D4025022DB20B4C246844EA050541
:10109C00094C256001256DB2054C2560DDF800E09A
:1010AC000AB070475422000080C3FC431CE60F407A
:1010BC008400104204800040008000404D0B000072
:1010CC00D4000020810B0000D800002010800040CC
:1004600081B0CDF800E040F2000B82460AF1D801DD
:1004700009788B4539D20C210BFB01F10AEB010104
:100480008C460CF108010978A9B90CF1080109782A
:10049000CCB20CF1060109888BB20CF10401097889
:1004A000CAB2DCF800100846D1B2002210B400F045
:1004B0008DF801B014E00CF108010978CCB20CF110
:1004C000060109888BB20CF104010978CAB2DCF884
:1004D00000100846D1B20F2210B400F077F801B036
:1004E0000BF1010B5FFA8BFBC0E7DDF800E001B018
:0204F000704753
:0C053C0001480068704700BFD00000209C
:1016480081B0CDF800E000F208010B68011D0A68BE
:101658000168084691B29AB2034BFFF783FC002059
:0C166800DDF800E001B0704788200000B1
:101A400081B0CDF800E011E00846FFF7EBFD16E0AD
:101A50000846FFF7D5FD12E00846FFF709FC0EE047
:101A60000846FFF7F3FB0AE0012008E00028EBD06E
:101A70000128EDD02028EFD03028F1D0F4E7DDF8B0
:061A800000E001B0704718
:1016240081B0CDF800E0FFF72DFC044A04490A60BC
:101634000020DDF800E001B0704700BFA50D0000F8
:04164400BC000020C6
:100E880082B0CDF800E00346214A22490A60224A8E
:100E980022490A60224A23490A60234A23490A60F0
:100EA80001932348FFF7D8FA019B012252B2214946
:100EB8000A6000BF00BF00BFFFF72AFBFFF73AFB3D
:100EC80040F2E83100FB01F210461901914205D9C0
:100ED800012252B218490A605A0804E0002252B2AC
:100EE80015490A601A46C100B1FBF2F1491C4B08CA
:100EF8009A0912490A6003F03F0211490A60602208
:100F080010490A60FFF7F2FADDF800E002B0704716
:100F1800A50D0000DC000020FFFFFFFFE00000201F
:100F2800FFFFFFFFE4000020FFFFFFFFE8000020B5
:100F3800AC1F000014C3FC431406224224100140D5
:080F4800281001402C100140AB
:1005180081B0002149B204480160044801600448E0
:10052800016001B0704700BF000622422006224247
:040538002406224231
:1004F40081B0012149B20448016004480160044804
:10050400016001B0704700BF00062242200622426B
:040514002406224255
:1016000081B0CDF800E0FFF7C5FA044A04490A604A
:101610000020DDF800E001B0704700BFFD0D0000C4
:04162000BC000020EA
:100B940082B0CDF800E00346214A22490A60224A85
:100BA40022490A60224A23490A60234A23490A60E7
:100BB40001932348FFF752FC019B012252B22149C1
:100BC4000A6000BF00BF00BFFFF712FCFFF7B4FCD0
:100BD40040F2E83100FB01F210461901914205D9B7
:100BE400012252B218490A605A0804E0002252B2A3
:100BF40015490A601A46C100B1FBF2F1491C4B08C1
:100C04009A0912490A6003F03F0211490A606022FE
:100C140010490A60FFF7FEFBDDF800E002B0704700
:100C2400FD0D0000DC000020FFFFFFFFE0000020BE
:100C3400FFFFFFFFE4000020FFFFFFFFE8000020AC
:100C4400F41D00001CC3FC4314062642243001405A
:080C5400283001402C30014062
:1003F40081B0002149B20448016004480160044806
:10040400016001B0704700BF000626422006264264
:040414002406264252
:1004180081B0012149B204480160044801600448E0
:10042800016001B0704700BF000626422006264240
:04043800240626422E
:1012700081B0CDF800E0FFF7F1FC044A04490A60B0
:101280000020DDF800E001B0704700BFDD10000075
:04129000BC0000207E
:100C5C0082B0CDF800E00346214A22490A60224ABC
:100C6C0022490A60224A23490A60234A23490A601E
:100C7C0001932348FFF7EEFB019B012252B221495D
:100C8C000A6000BF00BF00BFFFF7D2FBFFF750FCAC
:100C9C0040F2E83100FB01F210461901914205D9EE
:100CAC00012252B218490A605A0804E0002252B2DA
:100CBC0015490A601A46C100B1FBF2F1491C4B08F8
:100CCC009A0912490A6003F03F0211490A60602236
:100CDC0010490A60FFF742FCDDF800E002B07047F3
:100CEC00DD100000DC000020FFFFFFFFE000002013
:100CFC00FFFFFFFFE4000020FFFFFFFFE8000020E4
:100D0C00D01E000008C3FC4314061C4224E0004023
:080D1C0028E000402CE000403B
:10043C0081B0002149B204480160044801600448BD
:10044C00016001B0704700BF00061C4220061C4230
:04045C0024061C4214
:1005680081B0012149B2044801600448016004488F
:10057800016001B0704700BF00061C4220061C4203
:0405880024061C42E7
:10124C0081B0CDF800E0FFF79FFC044A04490A6026
:10125C000020DDF800E001B0704700BFFD0D00007C
:04126C00BC000020A2
:101B280081B0CDF800E00F490F48FFF771FF0F486B
:101B38000221FFF7DDFD0E480221FFF7D9FD0D4810
:101B48000221FFF7D5FD40F6FE07C0F23D0700BFB2
:101B580000BF7F1EFDD100BF00BF00BFDDF800E061
:101B680001B0704760220000E8210000000000205A
:081B78001900002032000020DA
:101A180081B0CDF800E003460846FFF7F1FB184611
:101A2800FFF7FAFB0120034C2468A047DDF800E02B
:081A380001B07047C800002056
:0C12400001490860704700BF907FB84271
:0C12AC0001490860704700BF807FB84215
:0C12A00001490860704700BF807FB24227
:0C12940001490860704700BF887FB0422D
:0C16EC0001490860704700BF907FB042C9
:0C16D40001490860704700BF947FB042DD
:0C16C80001490860704700BF807FB642F7
:0C16E00001490860704700BF907FBA42CB
:0C168C0001490860704700BF987FB4421D
:0C16800001490860704700BF9C7FB44225
:0C16740001490860704700BF887FB24247
:0C16980001490860704700BF8C7FB2421F
:0C16BC0001490860704700BF947FB842ED
:0C16B00001490860704700BF847FB84209
:0C16A40001490860704700BF947FB2420B
:0C11280001490860704700BF887FB0429A
:0C11340001490860704700BF907FB04286
:0C11400001490860704700BF947FB04276
:0C111C0001490860704700BF847FB642A4
:0C10F80001490860704700BF987FB642B5
:0C11040001490860704700BF907FB442B2
:0C11100001490860704700BF947FB442A2
:0C114C0001490860704700BF887FB24274
:0C11FC0001490860704700BF8C7FB242C0
:10120800026803490A60011D0A6802490A607047BA
:08121800C0000020C40000200A
:1012200000F230011C310A6803490A6000F208012B
:101230000A6802490A607047CC000020C8000020FC
:1016F80083B0CDF800E0024610460D228DF8082090
:101708000A228DF809201FE0FFF764FD23E0027824
:101718002AB10190FFF75EFD0198401CF7E71AE037
:1017280002782AB10190FFF755FD0198401CF7E7B0
:1017380002AA1046FFF74EFD0DF109021046FFF709
:1017480049FD08E0062007E00029DDD00129DED0A8
:101758000229E5D0F6E70020DDF800E003B0704785
:1011DC0081B0CDF800E00178CCB2A0B2034C246809
:1011EC00A0470020DDF800E001B07047BC000020F3
:100B800081B0CDF800E0FFF7E1FFDDF800E001B053
:020B90007047AC
:100B4C0081B0054908600549096801B9FBE702490C
:100B5C00086801B0704700BF08800040880110424F
:100B6C0081B0CDF800E0FFF71BFDDDF800E001B02F
:020B7C007047C0
:1005AC0081B0054908600549096801B9FBE70249B2
:1005BC00086801B0704700BF0890004088011242E3
:100D380081B0CDF800E0FFF725FCDDF800E001B058
:020D48007047F2
:10058C0081B0054908600549096801B9FBE70249D2
:10059C00086801B0704700BF08A0004088011442F1
:100D240081B0CDF800E0FFF70DFCDDF800E001B084
:020D3400704706
:1005480081B0054908600549096801B9FBE7024916
:10055800086801B0704700BF08B000408801164223
:100E6C0081B00449096801B1FBE70349086001B08E
:0C0E7C00704700BF1403184200C0004083
:100E500081B00449096801B1FBE70349086001B0AA
:0C0E6000704700BF14031A4200D000408D
:1010DC0081B00449096801B1FBE70349086001B01C
:0C10EC00704700BF14031C4200E00040ED
:100F500081B00449096801B1FBE70349086001B0A9
:0C0F6000704700BF14031E4200F0004068
:100E340081B00449096801B1FBE70349086001B0C6
:0C0E4400704700BF140320420000014072
:100DA40081B00449096801B1FBE70349086001B057
:0C0DB400704700BF1403224200100140F1
:100E180081B00449096801B1FBE70349086001B0E2
:0C0E2800704700BF14032442002001406A
:100DFC0081B00449096801B1FBE70349086001B0FF
:0C0E0C00704700BF140326420030014074
:101B800081B0CDF800E0FFF7EFFD194800ED000A45
:101B900040F6FE07C0F23D077F1EFDD100BF00BF2B
:101BA00000BF00BF00BF124810ED000A1148FFF748
:101BB0001BFE11480121FFF79FFD01210D48FFF792
:101BC0009BFD0E480221FFF797FD0D480221FFF70C
:101BD00093FD4CF2FE17C0F6EB377F1EFDD100BF20
:101BE00000BF00BF00BF00BFDDF800E001B07047DC
:101BF00084000020880000204B00002057000020B7
:041C00005E00002062
:1017680083B0CDF800E04FF0000000EE100A8DEDD8
:10177800010AFFF711FDADF80800FFF7FDFCA0B95D
:10178800BDF8081041F6FF7001EA000080B2A0F52C
:10179800805080B200EE900AF8EE600A0E4800EE23
:1017A800100A20EE800A8DED010ADDED010A0B48D2
:1017B80000EE100AF4EEC00AF1EE10FA05DD4FF063
:1017C800000000EE100A8DED010A9DED010ADDF81A
:1017D80000E003B0704700BFCDCC4C3C000048424D
:1011A00082B0CDF800E000200B4C2468A04701A8D5
:1011B0000221FFF705FE0120074C2468A04701AA81
:1011C0001078010289B2501C007841EA0000DDF875
:0C11D00000E002B0704700BFC800002023
:100DC00083B0CDF800E0ADF808100190BDF8083010
:100DD000BDF80820521EADF808204BB10020064C8B
:100DE0002468A047019A1070019A521C0192EDE705
:0C0DF000DDF800E003B07047C4000020F4
:1011800081B0CDF800E000F00BF881B2C1F3C030BF
:1011900008B9002000E00120DDF800E001B0704750
:1017E80083B0CDF800E00446002000235BB28DED05
:1017F800020A0299B1F1FF3F05D170492046FFF76F
:10180800A7FC0320D5E0012502A9C91C097801F02D
:101818008001C9B269B102A9CA1C117881F080019E
:101828001170691CCAB22D212170641CD7B22646DA
:1018380001E02646EFB2029929B961493046FFF71F
:1018480087FC0020B5E00299B1F1FF4F05D15D4951
:101858003046FFF77DFCF8B2ABE08DF80430C3B238
:1018680034469DF90400DDED020AB7EE000AF4EEF5
:10187800C00AF1EE10FA0ADADDED020AB2EE040A45
:1018880020EE800A8DED020A401E40B2EBE7DDED46
:10189800020AB2EE040AF4EEC00AF1EE10FA0BDB0B
:1018A800DDED020A484900EE101A20EE800A8DED9F
:1018B800020A401C40B2EAE702994900029102A9D3
:1018C800C91C09787F39CDB202A9CA1C012111703F
:1018D8000299A940029102A9C91C097830312170E6
:1018E800621C012803DB062801DC154603E02E21D3
:1018F8001170551C0123062144B2C8B210B302A9C5
:10190800CA1C0021117002998A0002998918029153
:1019180002994900029102A9C91C0978303129703D
:101928006D1C63B9611E49B24AB221B92E212970D2
:101938006D1C012100E0D9B254B2CBB2FFE7401EC2
:10194800C0B2DBE72A4660B2511E0978302901D1BE
:10195800521EF9E7511E09782E2901D1521EFFE7C0
:1019680018B365211170521C002806DA2D21117058
:10197800521C414248B243B200E043B2D8B2D9B295
:10198800092907D90A21B0FBF1F1C9B23031117028
:10199800531C00E013460A22B0FBF2F102FB1101CE
:1019A800C9B230311970581C00E01046002101708E
:1019B8000020DDF800E003B0704700BF770000208A
:0C19C8007B0000207D000020CDCCCC3D39
:1011580081B00091014600980B461C465A1C154662
:101168000346421C10461A78227022780AB12B4690
:08117800F3E7084601B07047DF
:101CC40081B0CDF800E0344A344B354C354D364EB6
:101CD4004FF03011354801600021354801606FF044
:101CE400010003EA000133480160C3F3C00018B9DE
:101CF400FFF7ECFEFFF7EAFEC3F3000018B1012181
:101D040049B22D4801602D48864203D92C49274801
:101D1400016021E02B48864203D92B492348016006
:101D24001AE04CF25030864203D928491F4801601A
:101D340012E047F23050864203D925491B4801601E
:101D44000AE0B6F57A5F03D922491848016003E036
:101D54004FF03011154801601F4804601F480560AA
:101D64006FF0805002EA000111480160012149B27C
:101D74001B4801601B48016002F0805038B11A48CA
:101D8400006800B9FBE7012149B218480160DDF899
:101D940000E001B0704700BF0400303311000000C0
:101DA4001800800000000000C0D40100C0E00F4013
:101DB400B0E00F407CE00F40800FFC43A0860100A0
:101DC400960130008038010055013000D300300006
:101DD400B20030007100300060E10F4064E10F4058
:101DE4007C16FC437816FC43002DFC437016FC4320
:101AD00041F67E27C0F206077F1EFDD100BF00BF82
:081AE00000BF00BF00BF70470A
:101C8C0081B002490248016001B07047C0D4010024
:041C9C00D000002054
:081C580081B0FEE701B0704706
:101C600081B04EF68850CEF20000016841F4700158
:101C7000016000BF00BF00BF00BFF1EE100A40F4DA
:0A1C80004000E1EE100A01B07047C9
:1022680000B5DFF814B0DFF814A0DFF814C0FFF7EA
:102278001FFC00BD704700BF000000208100002047
:0422880064210000CD
:1022E80000B5DFF810B0DFF810A0FFF7F9FB00BD6C
:0C22F800704700BF00000020EC00002038
:101DF40000A00540100040050100000000A00540BF
:101E04002000400501000000000000000000000068
:101E140000000000000000000000000000000000BE
:101E240000000000000000000000000000000000AE
:101E3400000000000000000000000000000000009E
:101E4400000000000000000000000000000000008E
:101E5400000000000000000000000000000000007E
:101E6400000000000000000000000000000000006E
:101E7400000000000000000000000000000000005E
:101E8400000000000000000000000000000000004E
:101E9400000000000000000000000000000000003E
:101EA400000000000000000000000000000000002E
:101EB400000000000000000000000000000000001E
:0C1EC40000000000000000000200000010
:101ED00000B00540100040050100000000B00540C2
:101EE000200040050100000000000000000000008C
:101EF00000000000000000000000000000000000E2
:101F000000000000000000000000000000000000D1
:101F100000000000000000000000000000000000C1
:101F200000000000000000000000000000000000B1
:101F300000000000000000000000000000000000A1
:101F40000000000000000000000000000000000091
:101F50000000000000000000000000000000000081
:101F60000000000000000000000000000000000071
:101F70000000000000000000000000000000000061
:101F80000000000000000000000000000000000051
:101F90000000000000000000000000000000000041
:0C1FA00000000000000000000200000033
:101FAC0000F00540400040050100000000F0054035
:101FBC00800040050100000000000000000000004F
:101FCC000000000000000000000000000000000005
:101FDC0000000000000000000000000000000000F5
:101FEC0000000000000000000000000000000000E5
:101FFC0000000000000000000000000000000000D5
:10200C0000000000000000000000000000000000C4
:10201C0000000000000000000000000000000000B4
:10202C0000000000000000000000000000000000A4
:10203C000000000000000000000000000000000094
:10204C000000000000000000000000000000000084
:10205C000000000000000000000000000000000074
:10206C000000000000000000000000000000000064
:0C207C0000000000000000000200000056
:1020880000800540040040050F0000000080054066
:10209800100040050F0000000080054020004005AA
:1020A8000F00000000000000000000000000000019
:1020B8000000000000000000000000000000000018
:1020C8000000000000000000000000000000000008
:1020D80000000000000000000000000000000000F8
:1020E80000000000000000000000000000000000E8
:1020F80000000000000000000000000000000000D8
:1021080000000000000000000000000000000000C7
:1021180000000000000000000000000000000000B7
:1021280000000000000000000000000000000000A7
:102138000000000000000000000000000000000097
:102148000000000000000000000000000000000087
:0C21580000000000000000000300000078
:102164002D2D2D2D2D2D2D2D2D2D2D2D2D2D2D2D9B
:102174002D2D2D2D2D2D2D2D002020202020202013
:1021840048616C6C2043757272656E742020202047
:02219400200029
:102196002D2D2D2D2D2D2D2D2D2D2D2D2D2D2D2D69
:1021A6002D2D2D2D2D2D2D2D002043757272656E32
:0C21B60074203A2000205B2041205D00D6
:1021C2002D2D2D2D2D2D2D2D2D2D2D2D2D2D2D2D3D
:1021D2002D2D2D2D2D2D2D2D004E614E003000491F
:0321E2004E460066
:1021E80041120000AD120000A1120000951200007B
:1021F800ED160000D5160000C9160000E116000013
:102208008D16000081160000751600009916000052
:10221800FFFFFFFFFFFFFFFFFFFFFFFFFFFFFFFFC6
:10222800FFFFFFFFFFFFFFFFFFFFFFFFFFFFFFFFB6
:10223800FFFFFFFFFFFFFFFFFFFFFFFFFFFFFFFFA6
:0C22480040420F00000000008700000072
:04225400FFFFFF7F0A
:042258000000000082
:02225C0002007E
:01225E00007F
:08226000810B00004D0B000092
:00000001FF
