:02000004000BEF
:10000000FCFF002009150B00B1140B00B1140B000C
:10001000B1140B00B1140B00B1140B00B1140B00A0
:10002000B1140B00B1140B00B1140B00B1140B0090
:10003000B1140B00B1140B00B1140B00B1140B0080
:10004000B1140B00B1140B00B1140B00B1140B0070
:10150800FFF7D6FF00F010F8FFF7E4FF00F092F9BC
:1015180000F05AF800F04EF9FFF79EFFFFF770FF52
:08152800FFF72CFFFCE7FEE7D2
:10131C0081B01CF8019B0BF8019BBBEB0A0FF8D1B9
:04132C0001B0704755
:1013480081B04FF000094FF0000CBDEB0A0F04DC30
:10135800BDEB0B0F01DBD446EA464BF8049BBBEB15
:101368000A0FFAD1BCEB0A0F05DDE246D9F800B046
:0A1378000BF1040BF1E701B0704720
:1014600081B0CDF800E0012207210020FFF7C2FD86
:10147000002202210020FFF7BDFD0C48014600209C
:10148000FFF7FCFE42F280510120FFF7CBFE46F64B
:10149000FE17C0F2180700BF00BF7F1EFDD100BFBE
:1014A00000BF00BFDDF800E001B07047A8170B00D7
:100FF40081B0CDF800E05FFA81F95FFA82FA0FE080
:101004005FFA8AF15FFA89F0FFF77CFE0DE05FFA80
:101014008AF15FFA89F0FFF793FD06E0012004E00E
:101024000028EDD00128F2D0F8E7DDF800E001B0A7
:02103400704703
:100D080081B0CDF800E0A9E0012905D140F2010148
:100D18006548FFF785FD04E040F201016248FFF7EE
:100D280071FDBBE0012905D140F220015F48FFF7C2
:100D380077FD04E040F220015C48FFF763FDADE079
:100D4800012905D140F208015948FFF769FD04E07F
:100D580040F208015648FFF755FD9FE0012905D1EB
:100D680040F210015348FFF75BFD04E040F2100128
:100D78005048FFF747FD91E0012905D140F24001B5
:100D88004C48FFF74DFD04E040F240014948FFF7A9
:100D980039FD83E0012905D140F210014448FFF7ED
:100DA8003FFD04E040F210014148FFF72BFD75E0DC
:100DB800012905D140F210013F48FFF731FD04E059
:100DC80040F210013C48FFF71DFD67E0012905D1FD
:100DD80040F201013748FFF723FD04E040F201012A
:100DE8003448FFF70FFD59E0012905D140F22001F1
:100DF8003248FFF715FD04E040F220012F48FFF7C5
:100E080001FD4BE0012905D140F210012B48FFF705
:100E180007FD04E040F210012848FFF7F3FC3DE02D
:100E2800012905D140F201012548FFF7F9FC04E04A
:100E380040F201012248FFF7E5FC2FE0012905D126
:100E480040F280011A48FFF7EBFC04E040F2800111
:100E58001748FFF7D7FC21E0012020E000283FF4E5
:100E680053AF01283FF45EAF02283FF469AF03286F
:100E78003FF474AF04283FF47FAF05283FF48AAFEE
:100E880006283FF495AF0728A0D00828ACD0092839
:100E9800B8D00A28C4D00B28D0D0DDE70020DDF870
:100EA80000E001B0704700BF001208408010084001
:100EB8000010084060100840601108400011084008
:040EC80020100840AE
:1008280081B0CDF800E0044AC9B2FFF715FEDDF843
:0C08380000E001B0704700BF0004100099
:1004600081B01446314B984203D8314B984200D3A7
:1004700000E058E02E4BC31A03F01F0303B152E013
:10048000064600F5A0624FF6FF7304EA0303184620
:10049000284B04EA03031B0C40F20008CFB20146CC
:1004A0001846B8F1080F3ED201231BB203FA08F335
:1004B0001BB21CB207EA0403A34231D101F440533A
:1004C0008BB14FEA8803F5182C686FF4405304EAA7
:1004D00003032B604FEA8803F51801F440542B689E
:1004E00023432B601CE04FEA8803F5182C68114B5E
:1004F00004EA03032B604FEA8803F41823680B43D4
:1005000023604FEA8803D5182C686FF0FF0304EAD4
:1005100003032B604FEA8803D41823680343236046
:1005200008F10108BDE701B0704700BFC0120840E4
:08053000001008400000FFFF6D
:10080C0081B0CDF800E0044AC9B2FFF723FEDDF851
:0C081C0000E001B0704700BF00062000A3
:100B440081B0CDF800E0A9E0012905D140F202010D
:100B54006548FFF767FE04E040F202016248FFF7D0
:100B640053FEBBE0012905D140F220015F48FFF7A5
:100B740059FE04E040F220015C48FFF745FEADE079
:100B8400012905D140F208015948FFF74BFE04E062
:100B940040F208015648FFF737FE9FE0012905D1CE
:100BA40040F210015348FFF73DFE04E040F210010B
:100BB4005048FFF729FE91E0012905D140F2400198
:100BC4004C48FFF72FFE04E040F240014948FFF78C
:100BD4001BFE83E0012905D140F210014448FFF7D0
:100BE40021FE04E040F210014148FFF70DFE75E0DC
:100BF400012905D140F204013D48FFF713FE04E04A
:100C040040F204013A48FFF7FFFD67E0012905D1EE
:100C140040F204013848FFF705FE04E040F2040105
:100C24003548FFF7F1FD59E0012905D140F22001D3
:100C34003248FFF7F7FD04E040F220012F48FFF7A8
:100C4400E3FD4BE0012905D140F210012B48FFF7E9
:100C5400E9FD04E040F210012848FFF7D5FD3DE02E
:100C6400012905D140F201012548FFF7DBFD04E02D
:100C740040F201012248FFF7C7FD2FE0012905D109
:100C840040F280011A48FFF7CDFD04E040F28001F4
:100C94001748FFF7B9FD21E0012020E000283FF4C8
:100CA40053AF01283FF45EAF02283FF469AF032835
:100CB4003FF474AF04283FF47FAF05283FF48AAFB4
:100CC40006283FF495AF0728A0D00828ACD00928FF
:100CD400B8D00A28C4D00B28D0D0DDE70020DDF836
:100CE40000E001B0704700BF0012084080100840C7
:100CF400001008406010084020110840001108400E
:040D04002010084073
:10127C0081B0CDF800E009E00846FFF749FC0AE030
:10128C000846FFF71DFE06E0012004E00028F3D01D
:0E129C000128F5D0F8E7DDF800E001B070475A
:100B1C0081B0CDF800E000F208010B68011D0A68F5
:100B2C000168084691B2DAB2FFF780FD0020DDF8CB
:060B3C0000E001B070476B
:1006380081B0CDF800E0064C064B1C60064C074B19
:100648001C60FFF797FFDDF800E001B0704700BFBE
:1006580069050B00D0000020FFFFFFFFD400002039
:10057C0082B0CDF800E08346D0B21FFA81FC8DF832
:10058C0004002348FFF724FF9DF80400214B1B684F
:10059C0043EA00041F4B1C601E4B1868BCF1000F93
:1005AC0008D01D4B1B6843F001041B4B1C601A4BFD
:1005BC00186805E0184B1B6803F0FE04164B1C6012
:1005CC001648B0FBFBF080280BD2002809D9114B40
:1005DC001B6803F0EF040F4B1C604408104B1C60AD
:1005EC000CE0104BB3FBFBF00A4B1B6843F0100400
:1005FC00084B1C6043081846094B18600A4B1B68D3
:10060C0043F00104084B1C60DDF800E002B07047B9
:10061C0078160B001494004004940040006CDC022B
:0C062C001894004080841E0000940040E0
:1003DC0081B0CDF800E040F2000A81464FEA8A0174
:1003EC0009EB01010968B1F1FF3F12D009F13401A9
:1003FC004FEA8A03C91809680A4609EB0301096820
:10040C0008461146FFF7C8FF0AF1010A1FFA8AFADB
:0A041C00E4E7DDF800E001B07047EE
:1003A40082B0CDF800E000F0FF02130902F00F0262
:1003B4001446D8B2FFF778FF012212B2A240ADF87A
:1003C400042000460A469DF8041000F047F8DDF8C2
:0603D40000E002B07047DA
:1002AC0081B027E028484DE028484BE0284849E039
:1002BC00284847E0284845E0284843E0284841E0E2
:1002CC0028483FE028483DE028483BE0284839E0F2
:1002DC00284837E0284835E0284833E0284831E002
:1002EC0028482FE028482DE028482BE0284829E012
:1002FC00284827E00028D5D00128D5D00228D5D011
:10030C000328D5D00428D5D00528D5D00628D5D09B
:10031C000728D5D00828D5D00928D5D00A28D5D07B
:10032C000B28D5D00C28D5D00D28D5D00E28D5D05B
:10033C000F28D5D01028D5D01128D5D01228D5D03B
:10034C001328D5D001B07047001008402010084089
:10035C00401008406010084080100840A010084071
:10036C00C0100840E010084000110840201108405F
:10037C00401108406011084080110840A01108404D
:10038C00C0110840E011084000120840201208403B
:08039C00401208406012084005
:100ECC0081B0CDF800E000F208010B68011D0A6842
:100EDC000168084691B2DAB2FFF7A8FB0020DDF8F2
:060EEC0000E001B07047B8
:1012240081B0CDF800E009E00846FFF729FC0AE0A8
:101234000846FFF711FC06E0012004E00028F3D083
:0E1244000128F5D0F8E7DDF800E001B07047B2
:100A840081B0CDF800E0002300220321FFF7EAFD46
:100A9400034A04490A600020DDF800E001B0704711
:080AA400E50A0B0084000020AC
:1006680084B0CDF800E01FFA82FB1FFA83FC002259
:100678008DF80420ADF8081003904A48FFF7AAFE49
:100688000398BDF808109DF80420ADF804100290F6
:10069800FFF75AFF0298BDF804100025424C257058
:1006A8000025424C2570B0F5E13F06D9404CA042E8
:1006B80003D83F4CB4FBF0F308E0B0F5E13F04D8B1
:1006C8004FF4E134B4FBF0F300E00123ADF804107B
:1006D8000290FFF72DFF0298BDF8041003F0FF0405
:1006E800E5B2344C25701C0A04F07F04E5B2324CA4
:1006F8002570B0F5E13F06D92F4C247844F08005E9
:100708002D4C257005E02C4C247804F07F052A4CEC
:100718002570ADF80410FFF717FFBDF80410002589
:10072800264C25700BE042F00100C0B20EE042F00A
:100738000200C0B20AE042F00300C0B206E001299C
:10074800F1D00229F3D00329F5D0F4E74FEA8C045D
:10075800A4B240EA04044FEACB05ADB2E4B22C439C
:10076800E4B204F07F05154C25700025144C257063
:100778000025144C2570144D144C2560144D154C4F
:100788002560154D154C2560154D164C2560164CE9
:10079800247844F00105144C2570DDF800E004B01D
:1007A800704700BFE0160B00F0270F4001240F40F0
:1007B80060E3160000240F4001240F4003240F407B
:1007C80004240F4002240F40FFFFFFFFE000002039
:1007D800E50A0B00E4000020FFFFFFFFE80000200F
:0C07E800FFFFFFFFEC00002030270F4057
:1005500081B00448007800F07F010248017001B0CA
:08056000704700BF03240F40A7
:1005380081B00448007840F080010248017001B0A1
:08054800704700BF03240F40BF
:100A5C0081B0CDF800E0002300220321FFF7FEFD5A
:100A6C00034A04490A600020DDF800E001B0704739
:080A7C00E50A0B0084000020D4
:1014080081B0CDF800E00F490F48FFF71FFF0F48E4
:101418000221FFF747FF0E480221FFF743FF0D485F
:101428000221FFF73FFF46F6FE17C0F2180700BF7C
:1014380000BF7F1EFDD100BF00BF00BFDDF800E088
:1014480001B07047B4170B0048170B002C000020A0
:08145800450000205E000020A9
:1012540081B0CDF800E003460846FFF7C9FB184605
:10126400FFF774FB0120034C2468A047DDF800E07D
:0812740001B07047C00000202A
:100AE40082B0CDF800E08DF80400FFF72FFD08492F
:100AF400097801F02001C9B201B9F8E79DF80410A2
:100B040001F0FF0203490A70DDF800E002B070470B
:080B140005240F4000240F40EE
:100AAC0082B0CDF800E08DF80400FFF79DFE0849F8
:100ABC00097801F02001C9B201B9F8E79DF80410DA
:100ACC0001F0FF0203490A70DDF800E002B0704744
:080ADC0005280F4000280F401F
:1007F40081B00448007800F07F010248017001B024
:08080400704700BF03280F40FC
:100F5400024A117860F30001117070479013084041
:100F4400024A117860F34511117070478413084008
:100F6400024A117860F3C30111707047801308407E
:100F0400024A117860F3041111707047831308408A
:100EF400024A117860F38611117070478313084019
:100F1400024A117860F3041111707047801308407D
:100F3400024A117860F30411117070478B13084052
:100F2400024A117860F3000111707047831308407E
:1008A000024A117860F345111170704788130840AF
:10088000024A117860F30411117070478813084010
:1008C000024A117860F300011170704781130840EB
:1008F000024A117860F3C7111170704780130840E5
:1008D000024A117860F3410111707047901308408B
:1008E000024A117860F3C7111170704784130840F1
:10091000024A117860F34511117070478E13084038
:10090000024A117860F30411117070478313084094
:1008B000024A117860F38611117070478313084063
:10089000024A117860F30411117070478013084008
:10092000024A117860F38201117070478013084009
:100A1C00024A117860F38201117070478913084003
:100A0C00024A117860F34511117070478813084041
:100A2C00024A117860F30411117070478813084062
:100A4C00024A117860F3000111707047811308405D
:100A3C00024A117860F3C711117070478013084097
:1009F400026803490A60011D0A6802490A607047D7
:080A0400C4000020C80000201E
:1009500000F230011C310A6803490A6000F2080104
:100960000A6802490A607047CC000020C0000020DD
:1012AC0083B0CDF800E0024610460D228DF80820E0
:1012BC000A228DF809201FE0FFF734FB23E00278A7
:1012CC002AB10190FFF72EFB0198401CF7E71AE0BA
:1012DC0002782AB10190FFF725FB0198401CF7E733
:1012EC0002AA1046FFF71EFB0DF109021046FFF78C
:1012FC0019FB08E0062007E00029DDD00129DED02B
:10130C000229E5D0F6E70020DDF800E003B07047D5
:1009300081B0CDF800E00178CCB2E0B2034C24687D
:10094000A0470020DDF800E001B0704784000020DF
:1013840081B0CDF800E0FFF7F3FD194800ED000A45
:1013940046F6FE17C0F2180700BF00BF7F1EFDD13E
:1013A40000BF00BF00BF124810ED000A1148FFF74C
:1013B40041FE11480121FFF777FF01210D48FFF796
:1013C40073FF0E480221FFF76FFF0D480221FFF75C
:1013D4006BFF4BF2FE37C0F2C44700BF00BF7F1E55
:1013E400FDD100BF00BF00BFDDF800E001B07047D1
:1013F400880000208C000020000000200C00002049
:0414040013000020B1
:100F740083B0CDF800E04FF0000000EE100A8DEDD4
:100F8400010AFFF7F3FCADF80800FFF721FDA0B953
:100F9400BDF8081041F6FF7001EA000080B2A0F528
:100FA400805080B200EE900AF8EE600A0E4800EE1F
:100FB400100A20EE800A8DED010ADDED010A0B48CE
:100FC40000EE100AF4EEC00AF1EE10FA05DD4FF05F
:100FD400000000EE100A8DED010A9DED010ADDF816
:100FE40000E003B0704700BFCDCC4C3C0000484249
:1009700082B0CDF800E000200B4C2468A04701A80D
:100980000221FFF75FFF0120074C2468A04701AA5E
:100990001078010289B2501C007841EA0000DDF8AD
:0C09A00000E002B0704700BFC000002063
:1008440083B0CDF800E0ADF808100190BDF8083091
:10085400BDF80820521EADF808204BB10020064C0C
:100864002468A047019A1070019A521C0192EDE786
:0C087400DDF800E003B07047C800002071
:1005680081B0CDF800E0FFF75BFFDDF800E001B0F7
:020578007047CA
:1004280081B00A49096801F004010849096801F026
:100438000201074908600549096801F0020101B98C
:10044800F9E70449086801B0704700BF0894004004
:080458000C94004010940040D8
:1009D40081B0CDF800E0FFF7C9FF81B2C1F3C030A8
:1009E40008B9002000E00120DDF800E001B0704704
:1010380083B0CDF800E00446002000235BB28DEDBC
:10104800020A0299B1F1FF3F05D170492046FFF726
:10105800A9FC0320D5E0012502A9C91C097801F0E3
:101068008001C9B269B102A9CA1C117881F0800156
:101078001170691CCAB22D212170641CD7B2264692
:1010880001E02646EFB2029929B961493046FFF7D7
:1010980089FC0020B5E00299B1F1FF4F05D15D4907
:1010A8003046FFF77FFCF8B2ABE08DF80430C3B2EE
:1010B80034469DF90400DDED020AB7EE000AF4EEAD
:1010C800C00AF1EE10FA0ADADDED020AB2EE040AFD
:1010D80020EE800A8DED020A401E40B2EBE7DDEDFE
:1010E800020AB2EE040AF4EEC00AF1EE10FA0BDBC3
:1010F800DDED020A484900EE101A20EE800A8DED57
:10110800020A401C40B2EAE702994900029102A98A
:10111800C91C09787F39CDB202A9CA1C01211170F6
:101128000299A940029102A9C91C0978303121709D
:10113800621C012803DB062801DC154603E02E218A
:101148001170551C0123062144B2C8B210B302A97C
:10115800CA1C0021117002998A000299891802910B
:1011680002994900029102A9C91C097830312970F5
:101178006D1C63B9611E49B24AB221B92E2129708A
:101188006D1C012100E0D9B254B2CBB2FFE7401E7A
:10119800C0B2DBE72A4660B2511E0978302901D176
:1011A800521EF9E7511E09782E2901D1521EFFE778
:1011B80018B365211170521C002806DA2D21117010
:1011C800521C414248B243B200E043B2D8B2D9B24D
:1011D800092907D90A21B0FBF1F1C9B230311170E0
:1011E800531C00E013460A22B0FBF2F102FB110186
:1011F800C9B230311970581C00E010460021017046
:101208000020DDF800E003B0704700BF7700002041
:0C1218007B0000207D000020CDCCCC3DF0
:1009AC0081B00091014600980B461C465A1C154616
:1009BC000346421C10461A78227022780AB12B4644
:0809CC00F3E7084601B0704793
:1015300081B0CDF800E01F4B1F4A204C20480068C6
:1015400040F002011E480160012A08D0032A06D09B
:10155000042A04D0102A02D0302A00D002E0194810
:10156000026002E0012117480160C4F3C00216497D
:10157000086862F3C3000860C4F380021249086877
:1015800062F382000860C4F340020F49086862F306
:1015900041000860C4F300020B49086862F30000D0
:1015A0000860FFF7C5FE09480360DDF800E001B000
:1015B000704700BFE00100000100000000000000D3
:1015C00008E000E00401084008A4004008010840C9
:1013300046F6FE17C0F2180700BF00BF7F1EFDD1A2
:0813400000BF00BF00BF7047B1
:1015D00081B004490448016004490548016001B034
:1015E000704700BF80BB0000D80000200000000052
:0415F000DC000020FB
:0814B00081B0FEE701B07047B6
:1014DC0081B04EF68850CEF20000016841F47001E4
:1014EC00016000BF00BF00BF00BFF1EE100A40F466
:0A14FC004000E1EE100A01B0704755
:1014B80081B0DFF81000DFF810100860D0F800D015
:1014C80000F004B800000B0008ED00E000BF01B018
:0214D80070475B
:1017BC0000B5DFF814B0DFF814A0DFF814C0FFF7A1
:1017CC00A7FD00BD704700BF000000208100002075
:0417DC00F4150B00F5
:10183C0000B5DFF810B0DFF810A0FFF77FFD00BD9A
:0C184C00704700BF00000020F0000020EA
:0C15F4002043757272656E74203A20006E
:10160000205B2041205D002D2D2D2D2D2D2D2D2DEC
:101610002D2D2D2D2D2D2D2D2D2D2D2D2D2D2D0027
:101620002D2D2D2D2D2D2D2D2D2D2D2D2D2D2D2DEA
:101630002D2D2D2D2D2D2D2D002020202020202062
:1016400048616C6C2043757272656E742020202096
:02165000200078
:101652002D2D2D2D2D2D2D2D2D2D2D2D2D2D2D2DB8
:101662002D2D2D2D2D2D2D2D004E614E003000499A
:031672004E4600E1
:10167800340000003600000004000000FFFFFFFFF8
:101688000000000000000000000000000000000052
:101698000000000000000000000000000000000042
:1016A80000000000002000000020000000200000D2
:1016B8000000000000000000000000000000000022
:1016C8000000000000000000000000000000000012
:0816D80000000000000000000A
:1016E0008500000084000000FFFFFFFF00000000F5
:1016F00000000000000000000000000000000000EA
:1017000000000000000000000000000000000000D9
:1017100000000000001000000010000000000000A9
:1017200000000000000000000000000000000000B9
:1017300000000000000000000000000000000000A9
:081740000000000000000000A1
:10174800550F0B00450F0B00650F0B00050F0B0025
:10175800F50E0B00150F0B00350F0B00250F0B00B6
:10176800A1080B0081080B00C1080B00F1080B0051
:10177800FFFFFFFFFFFFFFFFFFFFFFFFFFFFFFFF71
:10178800FFFFFFFFFFFFFFFFFFFFFFFFFFFFFFFF61
:10179800FFFFFFFFFFFFFFFFFFFFFFFFFFFFFFFF51
:0C17A80040420F000000000000000000A4
:0817B400FFFFFFFF69050B00B8
:00000001FF
