:10000000FCFF0020F91D0000B11D0000B11D000023
:10001000B11D0000B11D0000B11D0000B11D0000A8
:10002000B11D0000B11D0000B11D0000B11D000098
:10003000B11D0000B11D0000B11D0000B11D000088
:10004000B11D0000B11D0000B11D0000B11D000078
:10005000B11D0000B11D0000B11D0000B11D000068
:10006000B11D0000B11D0000B11D0000B11D000058
:10007000B11D0000B11D0000B11D0000B11D000048
:10008000B11D0000B11D0000B11D0000B11D000038
:10009000B11D0000B11D0000B11D0000B11D000028
:1000A000B11D0000B11D0000B11D0000B11D000018
:1000B000B11D0000B11D0000B11D0000B11D000008
:1000C000B11D0000B11D0000B11D0000B11D0000F8
:1000D000B11D0000B11D0000B11D0000B11D0000E8
:1000E000B11D0000B11D0000B11D0000B11D0000D8
:1000F000B11D0000B11D0000B11D0000B11D0000C8
:101DF80000F010F8FFF7DCFF00F07CFBFFF7EEFFC8
:101E080000F02AFBFFF7A8FFFFF72EFFFFF75CFFA4
:041E1800FCE7FEE7FE
:101BF80081B01CF8019B0BF8019BBBEB0A0FF8D1D5
:041C080001B0704770
:101C280081B04FF000094FF0000CBDEB0A0F04DC47
:101C3800BDEB0B0F01DBD446EA464BF8049BBBEB2C
:101C48000A0FFAD1BCEB0A0F05DDE246D9F800B05D
:0A1C58000BF1040BF1E701B0704737
:101D600081B0CDF800E0012207210020FFF782FDBD
:101D7000002202210020FFF77DFD0C4801460020D3
:101D8000FFF760FD42F280510120FFF721FE44F68B
:101D90007D77C0F2120700BF7F1EFDD100BF00BFDC
:101DA00000BF00BFDDF800E001B070474424000030
:1018740081B0CDF800E05FFA81F95FFA82FA0FE0F7
:101884005FFA8AF15FFA89F0FFF75EFD0DE05FFA17
:101894008AF15FFA89F0FFF73FFE06E0012004E0D9
:1018A4000028EDD00128F2D0F8E7DDF800E001B01F
:0218B40070477B
:10134C0081B0CDF800E0A9E0012905D140F20101FE
:10135C006548FFF7C9FE04E040F201016348FFF75E
:10136C0097FEBBE0012905D140F240016048FFF730
:10137C00BBFE04E040F240015E48FFF789FEADE0A1
:10138C00012905D140F201015948FFF7ADFE04E0F7
:10139C0040F201015748FFF77BFE9FE0012905D180
:1013AC0040F220015448FFF79FFE04E040F2200178
:1013BC005248FFF76DFE91E0012905D140F2800102
:1013CC004D48FFF791FE04E040F280014B48FFF7D7
:1013DC005FFE83E0012905D140F240014648FFF74A
:1013EC0083FE04E040F240014448FFF751FE75E0F3
:1013FC00012905D140F280014148FFF775FE04E058
:10140C0040F280013F48FFF743FE67E0012905D118
:10141C0040F210013A48FFF767FE04E040F2100179
:10142C003848FFF735FE59E0012905D140F2040197
:10143C003548FFF759FE04E040F204013348FFF74A
:10144C0027FE4BE0012905D140F208012E48FFF799
:10145C004BFE04E040F208012C48FFF719FE3DE07A
:10146C00012905D140F220011F48FFF73DFE04E0A1
:10147C0040F220011D48FFF70BFE2FE0012905D19A
:10148C0040F210011848FFF72FFE04E040F2100163
:10149C001648FFF7FDFD21E0012020E000283FF475
:1014AC0053AF01283FF45EAF02283FF469AF032825
:1014BC003FF474AF04283FF47FAF05283FF48AAFA4
:1014CC0006283FF495AF0728A0D00828ACD00928EF
:1014DC00B8D00A28C4D00B28D0D0DDE70020DDF826
:1014EC0000E001B0704700BF414C0040434C00404D
:1014FC00404C0040424C0040004C0040024C00402C
:10150C00014C0040034C0040204C0040224C004059
:1010F40081B0CDF800E0002424B240F240031BB2DA
:1011040040F2040212B242EA03031BB240F20102AB
:1011140012B243EA020293B2002210B4FFF7C4FBF6
:0A11240001B0DDF800E001B07047F3
:1008AC0083B0CDF800E08DB20146D0B2BDF90C207A
:1008BC0001F0010414B12F02BFB200E0AFB28F4CB3
:1008CC000C1B640965018D4C6419A0468C4CA0422C
:1008DC0007D108F10406FD43ADB234882C403480B6
:1008EC0007E0884CA04204D108F104052C883C4355
:1008FC002C8040F2010403EA0404A4B23CB108F1D8
:10090C000606FD43ADB234882C4034800AE040F238
:10091C00020403EA0404A4B224B108F106052C88ED
:10092C003C432C8040F2040403EA0404A4B23CB11E
:10093C0008F10806FD43ADB234882C4034800AE03F
:10094C0040F2080403EA0404A4B224B108F1080537
:10095C002C883C432C8040F2100403EA0404A4B21B
:10096C003CB108F11806FD43ADB234882C403480FC
:10097C000AE040F2200403EA0404A4B224B108F112
:10098C0018052C883C432C8040F2400403EA0404F4
:10099C00A4B23CB108F11A06FD43ADB234882C4028
:1009AC0034800AE040F2800403EA0404A4B224B1C7
:1009BC0008F11A052C883C432C8003F48074A4B2F3
:1009CC007CB908F10A06FD43ADB234882C40348062
:1009DC0008F10C06FD43ADB234882C403480002065
:1009EC0087E01F2A01DD012083E0FFF705FF0020CF
:1009FC00B9B2C7B24046102F80F07A8021FA07F4C2
:100A0C00A4B204F00104A4B2002C00F06E8000F239
:100A1C000A06CD43ADB234882C40348000F20C066B
:100A2C00CD43ADB234882C40348003F48064A4B23E
:100A3C002CB1ADF806100024ADF808400DE003F41D
:100A4C000064A4B22CB10024ADF80640ADF8081037
:100A5C0003E0ADF80610ADF8081000F20A06358870
:100A6C00BDF8064045EA0404348000F20C063588D3
:100A7C00BDF8084045EA04043480234C041B640987
:100A8C00ADF80440214CA24218D0BDF80440E4005B
:100A9C00A4B265001E4C65197C08E4B264002E19E2
:100AAC0007F00104E4B2E5002DB240F2FF04AC40C3
:100ABC00A4B2E543ADB234882C403480BDF8044078
:100ACC00E400A4B26500124C65197C08E4B2640021
:100ADC002E1907F00104E4B2E5002DB294B204FA29
:100AEC0005F5ADB234882C4334807F1CFFB282E70D
:100AFC000020DDF800E003B0704700BF004C004060
:100B0C000000000001000000004C0040000000004C
:040B1C00085000403D
:1008040081B042F65251034801800221024801801E
:0C08140001B0704700500040025000404E
:10109C0081B0CDF800E0002424B240F240031BB232
:1010AC0040F2040212B242EA03031BB240F2010204
:1010BC0012B243EA020293B2012210B4FFF7F0FB22
:0A10CC0001B0DDF800E001B070474C
:10151C0081B0CDF800E0A9E0012905D140F2080125
:10152C006548FFF7E1FD04E040F208016348FFF76E
:10153C00AFFDBBE0012905D140F280016048FFF707
:10154C00D3FD04E040F280015E48FFF7A1FDADE061
:10155C00012905D140F204015B48FFF7C5FD04E009
:10156C0040F204015948FFF793FD9FE0012905D192
:10157C0040F220015648FFF7B7FD04E040F220018D
:10158C005448FFF785FD91E0012905D140F2800117
:10159C004F48FFF7A9FD04E040F280014D48FFF7EA
:1015AC0077FD83E0012905D140F240014848FFF75F
:1015BC009BFD04E040F240014648FFF769FD75E0F1
:1015CC00012905D140F240014348FFF78DFD04E0AD
:1015DC0040F240014148FFF75BFD67E0012905D16E
:1015EC0040F240013648FFF77FFD04E040F2400135
:1015FC003448FFF74DFD59E0012905D140F20401B3
:10160C003548FFF771FD04E040F204013348FFF761
:10161C003FFD4BE0012905D140F208012E48FFF7B0
:10162C0063FD04E040F208012C48FFF731FD3DE07A
:10163C00012905D140F220012148FFF755FD04E0B6
:10164C0040F220011F48FFF723FD2FE0012905D1AF
:10165C0040F210011A48FFF747FD04E040F2100178
:10166C001848FFF715FD21E0012020E000283FF489
:10167C0053AF01283FF45EAF02283FF469AF032853
:10168C003FF474AF04283FF47FAF05283FF48AAFD2
:10169C0006283FF495AF0728A0D00828ACD009281D
:1016AC00B8D00A28C4D00B28D0D0DDE70020DDF854
:1016BC0000E001B0704700BF214C0040234C0040BB
:1016CC00414C0040434C0040404C0040424C0040D8
:1016DC00004C0040024C0040014C0040034C0040C8
:1018440081B0CDF800E009E00846FFF71DFD0AE08D
:101854000846FFF749FD06E0012004E00028F3D024
:0E1864000128F5D0F8E7DDF800E001B070478C
:10128C0081B0CDF800E0DFF8549000F218010B6843
:10129C0000F214010A6800F21001D1F8008000F28B
:1012AC000C010F6800F208010E68011D0D6804683E
:1012BC001BB212B20FFA88F14DF8049D08B404B4B5
:1012CC0002B43BB232B229B220B2FFF713FE04B023
:1012DC000020DDF800E001B0704700BF18210000CD
:100F000084B0CDF800E00FFA80FCADF80410ADF825
:100F10000820ADF80C30BDF91040ADF81040BDF917
:100F20001440ADF81440BDF91840ADF81840079CC6
:100F30002046FFF7A3FE0F4D0F4C25600F4D104CC0
:100F40002560BDF91860BDF91450BDF91040BDF918
:100F50000C30BDF90820BDF904100FFA8CF040B434
:100F600020B410B4FFF7DEFE03B0DDF800E004B0FB
:100F7000704700BF410C0000D80000208D0E00001B
:040F8000DC00002071
:100C7C0081B0CDF800E040F2000A814609F1D801BC
:100C8C0009788A453AD20C210AFB01F109EB0101E2
:100C9C008B460BF1080109781F2915D10BF10801BE
:100CAC000978CCB20BF1060109888BB20BF1040167
:100CBC0009888AB2DBF80010084691B2002210B401
:100CCC00FFF7EEFD01B014E00BF108010978CCB28E
:100CDC000BF1060109888BB20BF1040109888AB269
:100CEC00DBF80010084691B2FF2210B4FFF7D8FDD4
:100CFC0001B00AF1010A5FFA8AFABFE7DDF800E0F9
:040D0C0001B070477B
:100D240081B0BDF90460BDF90870BDF90C80184CA0
:100D3400258841F23F042540154C2580144C248815
:100D440044F00105124C258040EA030424B23443E4
:100D540024B23C4324B244EA080424B244F4807527
:100D64002DB20B4C248844EA0505094C2580084C17
:100D7400248844EA0205064C2580064C2180044C54
:100D840025884FF6FE742540014C258001B070473C
:080D9400002000400620004091
:1012EC0081B0CDF800E0DFF8549000F218010B68E3
:1012FC0000F214010A6800F21001D1F8008000F22B
:10130C000C010F6800F208010E68011D0D680468DD
:10131C001BB212B20FFA88F14DF8049D08B404B454
:10132C0002B43BB232B229B220B2FFF7E3FD04B0F3
:10133C000020DDF800E001B0704700BF182100006C
:1019D00081B0CDF800E00DE00846FFF79FFE10E073
:1019E0000846FFF7ADFE0CE00846FFF77FFE08E073
:1019F000012006E00028EFD00128F1D01028F3D014
:0A1A0000F6E7DDF800E001B07047E2
:10171C0081B0CDF800E0FFF7BDFB044A04490A6034
:10172C000020DDF800E001B0704700BF451100005B
:04173C008C000020FD
:100EA00081B0CDF800E084460B4A0C490A600C4A38
:100EB0000C490A600C4A0D490A600D4A0D490A6046
:100EC0000D48FFF7DBFE61460C48FFF767FFDDF8D2
:100ED00000E001B0704700BF45110000EC000020A9
:100EE000FFFFFFFFF0000020FFFFFFFFF4000020E6
:100EF000FFFFFFFFF8000020601F00000018004007
:100D9C0081B0CDF800E007460C463846FFF7C4FB9F
:100DAC0040F280013846FFF7C7FB40F2000138469D
:100DBC00FFF7CEFB40F200013846FFF7A5FB40F2EF
:100DCC0000013846FFF758FB40F200013846FFF7A8
:100DDC0079FB40F200013846FFF786FB2146384686
:100DEC00FFF70AFC3846FFF7FDFBDDF800E001B029
:020DFC0070473E
:0E05340081B0018841F00101018001B07047E3
:1005440081B003884FF63F7203EA020202800288F8
:080554000A43028001B0704768
:10055C0081B031B903884DF6FF7203EA02020280C2
:0C056C0002E002880A43028001B07047E0
:1005140081B0B1F5006F03D102880A43028005E07F
:1005240003884FF2FF7203EA0202028001B07047AF
:1004840081B019E0038847F6FF7203EA0202028092
:1004940019E0028842F40042028002880A43028082
:1004A40011E0028842F40042028003884BF6FF7296
:1004B40003EA0202028006E00029E3D0B1F5804F8E
:0A04C400E7D00029EDD001B0704729
:1004D00081B0B1F5807F04D1028842F4807202803D
:1004E00005E003884FF6FF6203EA0202028001B0D2
:0204F000704753
:1004F40081B0B1F5805F03D102880A43028005E030
:1005040003884EF6FF7203EA0202028001B07047CC
:1006040088B0CDF800E005460E4604AA1046FFF770
:100614006BFE04AA11462846FFF7BEFE00EE900AC0
:10062400F8EE600A00EE106AB8EE400A80EE800A26
:10063400B0EE401A01AA1046FFF7CAFEDDED010A2A
:10064400FCEE600A10EE902A92B291B2414A00EE9A
:10065400902A20EE200ABCEE400A10EE100A80B266
:1006640005F2080423884FF6FE7203EA0202228090
:1006740010292ED905F208031A8842F001021A80C3
:10068400B3EE000A81EE000ABCEE400A10EE102A16
:1006940092B2ADF80820B3EE000AC1EE000AB3EE40
:1006A400000A81EE000ABCEE400A10EE102A92B253
:1006B40000EE102AB8EE400A70EEC00AB3EE000A4B
:1006C40020EE800ABCEE400A10EE102A92B2ADF879
:1006D4000A2020B90022ADF80C20284616E0012497
:1006E4002946242C11D263001B4AD2181288904246
:1006F40008D2621E12B25300184AD2181288ADF8FA
:100704000C2002E0641CE4B2EBE70846831D0022DF
:100714001A80841D2388BDF8082043EA020222803F
:1007240000F208031A8802F001021A8000F2080499
:10073400BDF80C2013029BB2BDF80A20120192B23C
:1007440013439BB222881A432280DDF800E008B0EC
:10075400704700BF00401C46B4230000FC23000087
:1002EC0082B0CDF800E004462849096801F4E061C9
:1002FC00090A08462549096801F0E061090E0A4619
:10030C00214601911146FFF751FF019908601F49E1
:10031C00096801F07001090908461C49096801F4D3
:10032C00E001090D0A4604F2080101911146FFF79C
:10033C003DFF019908601549096801F07001090930
:10034C0008461249096801F0E041090F0A4604F217
:10035C000C0101911146FFF729FF019908600B4927
:10036C00096801F0070108460849096801F4E02111
:10037C00090C0A46211D01911146FFF717FF01993F
:10038C000860DDF800E002B0704700BF08040140CF
:1001B80081B0CDF800E002460846FFF7B3FFC3B2AE
:1001C80071E0424A126802F00102D2B140F2010025
:1001D800FFF792FF3D4A126802F001028AB13C4AD9
:1001E800126802F400422AB14FF4FA3292FBF3F299
:1001F800104666E048F20002B2FBF3F292B290B207
:100208005FE0344A1268B2FBF3F2104659E02F4A15
:10021800126802F00202D2B140F20200FFF76CFF4E
:100228002A4A126802F002028AB1294A126802F4C4
:1002380000422AB14FF4FA3292FBF3F2104640E042
:1002480048F20002B2FBF3F292B290B239E0224ACD
:100258001268B2FBF3F2104633E0204A1268B2FB90
:10026800F3F210462DE01A4A126802F400422AB14D
:100278004FF4FA3292FBF3F2104622E048F2000201
:10028800B2FBF3F292B290B21BE0FFF753FFB0FB60
:10029800F3F2104615E0124A1268B2FBF3F2104668
:1002A8000FE000200DE0002A3FF48BAF052AAED006
:1002B800012AD2D0022AD6D0032AE6D0042AEAD0CC
:1002C800EFE7DDF800E001B0704700BF48040140E7
:1002D80030040140E0000020E400002084000020F9
:0402E800880000206A
:10012C0081B0012109B2814009B208B201B0704717
:1001000081B0074A07490A600749096841EA0002C5
:1001100005490A60012203490A6001B0704700BF27
:0C0120005A690000000401405004014036
:10013C0082B01748006800F4E02114E015480190E3
:10014C0023E01548019020E0144801901DE014486C
:10015C0001901AE01348019017E01348019014E045
:10016C000020019011E00029E8D0B1F5803FE8D0E3
:10017C00B1F5003FE8D0B1F5403FE8D0B1F5802FA4
:10018C00E8D0B1F5A02FE8D0EAE7019802B07047AB
:10019C000404014060E31600C0C62D00808D5B0096
:0C01AC00001BB70000366E01006CDC0286
:10039C0081B0028802F0C00292B2920992B290B27D
:1003AC000AB900200EE0012802D10A68104609E0C3
:1003BC00022802D0032800D004E001F20C021268DB
:0803CC001046FFE701B0704785
:1003D40082B08DED010A9DED010AB5EEC00AF1EE81
:1003E40010FA0ADBDDED010AB7EE000AF4EEC00AEA
:1003F400F1EE10FA01DA012100E0002189B9DDED06
:10040400010ABFEE000AF4EEC00AF1EE10FA07DDAD
:100414009DED010AB5EEC00AF1EE10FA00DC00E031
:1004240008E04FF0000100EE101A00ED000A9DED07
:10043400010A23E001A90968C90D01F0FF017F3910
:1004440089B2182908D99DED010A00ED000A4FF080
:10045400000100EE101A11E09DED010ABDEE400A04
:1004640010EE101A00EE101AB8EEC00A00ED000AE1
:1004740050ED000A9DED010A30EE600A02B07047AB
:1005F00081B002884FF6FE7102EA0101018001B06C
:02060000704741
:1017400081B0CDF800E0FFF749FC044A04490A6083
:101750000020DDF800E001B0704700BF611100001B
:041760008C000020D9
:100FDC0081B0CDF800E084460B4A0C490A600C4AFB
:100FEC000C490A600C4A0D490A600D4A0D490A6009
:100FFC000D48FFF73DFE61460C48FFF7C9FEDDF8D2
:10100C0000E001B0704700BF61110000EC0000204F
:10101C00FFFFFFFFF0000020FFFFFFFFF4000020A8
:10102C00FFFFFFFFF8000020F42100000014004037
:1016EC0081B0CDF800E0FFF7A3FC044A04490A607E
:1016FC000020DDF800E001B0704700BFD9100000F9
:04170C008C0000202D
:10103C0081B0CDF800E084460B4A0C490A600C4A9A
:10104C000C490A600C4A0D490A600D4A0D490A60A8
:10105C000D48FFF70DFE61460C48FFF799FEDDF8D1
:10106C0000E001B0704700BFD9100000EC00002078
:10107C00FFFFFFFFF0000020FFFFFFFFF400002048
:10108C00FFFFFFFFF80000203C2000000010004094
:101C700081B0CDF800E00F490F48FFF795FE0F48FF
:101C80000221FFF719FE0E480221FFF715FE0D484D
:101C90000221FFF711FE44F67D77C0F2120700BF64
:101CA0007F1EFDD100BF00BF00BF00BFDDF800E018
:101CB00001B07047C81C0000542300000000002041
:081CC000190000203200002091
:1019A80081B0CDF800E003460846FFF7F5FE18467B
:1019B800FFF7FEFE0120034C2468A047DDF800E095
:0819C80001B07047CC000020C3
:0C17100001490870704700BF6088094262
:0C12800001490870704700BF58880942FF
:0C12380001490870704700BF408809425F
:0C12440001490870704700BF5480094247
:0C12200001490870704700BF5C80094263
:0C122C0001490870704700BF588009425B
:0C12680001490870704700BF7C800942FB
:0C12740001490870704700BF70800942FB
:0C12500001490870704700BF4884094243
:0C125C0001490870704700BF4C84094233
:0C18140001490870704700BF7488094249
:0C18200001490870704700BF7088094241
:0C18080001490870704700BF6C84094261
:0C17F00001490870704700BF7C88094266
:0C17FC0001490870704700BF488809428E
:0C182C0001490870704700BF5480094259
:0C18380001490870704700BF5C80094245
:0C177C0001490870704700BF5880094206
:0C17880001490870704700BF78800942DA
:0C17640001490870704700BF78880942F6
:0C17700001490870704700BF6880094202
:0C17940001490870704700BF6C800942DA
:0C17D80001490870704700BF7488094286
:0C17E40001490870704700BF708809427E
:1017A000026803490A60011D0A6802490A6070471D
:0817B000D4000020D00000204D
:1017B80000F230011C310A6803490A6000F208018E
:1017C8000A6802490A607047C8000020CC0000205F
:1018B80083B0CDF800E0024610460D228DF80820CE
:1018C8000A228DF809201FE0FFF754FC23E0027874
:1018D8002AB10190FFF74EFC0198401CF7E71AE087
:1018E80002782AB10190FFF745FC0198401CF7E700
:1018F80002AA1046FFF73EFC0DF109021046FFF759
:1019080039FC08E0062007E00029DDD00129DED0F7
:101918000229E5D0F6E70020DDF800E003B07047C3
:10117C0081B0CDF800E00178CCB2A0B2034C246869
:10118C00A0470020DDF800E001B070478C00002083
:100E3C0081B0CDF800E0FFF791FEDDF800E001B0E5
:020E4C007047ED
:100B680081B00649098801B1FBE7054908800349B6
:100B7800098801B1FBE701B0704700BF400102429C
:040B88000E1000400B
:100E500081B0CDF800E0FFF799FEDDF800E001B0C9
:020E60007047D9
:100B8C0081B00649098801B1FBE705490880034992
:100B9C00098801B1FBE701B0704700BF40810242F8
:040BAC000E140040E3
:100E780081B0CDF800E0FFF74FFEDDF800E001B0EB
:020E88007047B1
:100B200081B00649098801B1FBE7054908800349FE
:100B3000098801B1FBE701B0704700BF40010342E3
:040B40000E1800404B
:100E640081B0CDF800E0FFF76BFEDDF800E001B0E3
:020E74007047C5
:100B440081B00649098801B1FBE7054908800349DA
:100B5400098801B1FBE701B0704700BF408103423F
:040B64000E1C004023
:100E8C0081B0CDF800E0FFF7B1FEDDF800E001B075
:020E9C0070479D
:100BF80081B00649098801B1FBE705490880034926
:100C0800098801B1FBE701B0704700BF0001044249
:040C18000E2000406A
:100E140081B0CDF800E0FFF7FFFEDDF800E001B09F
:020E2400704715
:100C1C0081B00649098801B1FBE705490880034901
:100C2C00098801B1FBE701B0704700BF00810442A5
:040C3C000E24004042
:100E280081B0CDF800E0FFF7BFFEDDF800E001B0CB
:020E3800704701
:100BB00081B00649098801B1FBE70549088003496E
:100BC000098801B1FBE701B0704700BF0001054291
:040BD0000E280040AB
:1011300081B0CDF800E0FFF74DFDDDF800E001B033
:021140007047F6
:100BD40081B00649098801B1FBE70549088003494A
:100BE400098801B1FBE701B0704700BF00810542ED
:040BF4000E2C004083
:1010D80081B0CDF800E081B20348FFF7BBFBDDF833
:0C10E80000E001B0704700BF00100040A5
:10085C0081B0ADF800100146BDF8000001F20A02AB
:10086C00128802F0010292B202B1F7E701F20E0215
:06087C00108001B070477E
:1011600081B0CDF800E081B20348FFF777FBDDF8EE
:0C11700000E001B0704700BF0014004018
:1011440081B0CDF800E081B20348FFF785FBDDF8FC
:0C11540000E001B0704700BF0018004030
:100FC00081B0CDF800E081B20348FFF747FCDDF8BF
:0C0FD00000E001B0704700BF001C0040B2
:101CD00081B0CDF800E0FFF727FE194800ED000ABB
:101CE00044F67D77C0F2120700BF00BF7F1EFDD112
:101CF00000BF00BF00BF124810ED000A1148FFF7F7
:101D000085FE11480121FFF7D7FD01210D48FFF79E
:101D1000D3FD0E480221FFF7CFFD0D480221FFF74A
:101D2000CBFD48F2FD67C0F2933700BF7F1EFDD1A7
:101D300000BF00BF00BF00BFDDF800E001B070478A
:101D400090000020940000204B000020570000204D
:041D50005E00002011
:1019280083B0CDF800E04FF0000000EE100A8DED16
:10193800010AFFF72FFCADF80800FFF749FCA0B932
:10194800BDF8081041F6FF7001EA000080B2A0F56A
:10195800805080B200EE900AF8EE600A0E4800EE61
:10196800100A20EE800A8DED010ADDED010A0B4810
:1019780000EE100AF4EEC00AF1EE10FA05DD4FF0A1
:10198800000000EE100A8DED010A9DED010ADDF858
:1019980000E003B0704700BFCDCC4C3C000048428B
:10119C0082B0CDF800E000200B4C2468A04701A8D9
:1011AC000221FFF7E9FE0120074C2468A04701AAA1
:1011BC001078010289B2501C007841EA0000DDF879
:0C11CC0000E002B0704700BFCC00002023
:100F840083B0CDF800E0ADF808100190BDF808304A
:100F9400BDF80820521EADF808204BB10020064CC5
:100FA4002468A047019A1070019A521C0192EDE73F
:0C0FB400DDF800E003B07047D000002022
:1008480081B0CDF800E0FFF7BBFEDDF800E001B0B5
:020858007047E7
:1005C80081B0CDF800E000F0CBFA0549098801B107
:1005D800FBE704490888DDF800E001B0704700BF78
:0805E800400102420C1000402A
:1008980081B0CDF800E0FFF77FFEDDF800E001B0A1
:0208A800704797
:1005A00081B0CDF800E000F0F1FA0549098801B109
:1005B000FBE704490888DDF800E001B0704700BFA0
:0805C000408102420C140040CE
:1008840081B0CDF800E0FFF775FEDDF800E001B0BF
:020894007047AB
:1005780081B0CDF800E000F0CFFA0549098801B153
:10058800FBE704490888DDF800E001B0704700BFC8
:08059800400103420C18004071
:100C540081B0CDF800E0FFF7ABFDDDF800E001B0B6
:020C64007047D7
:1007B40081B0CDF800E000F0C3F90549098801B122
:1007C400FBE704490888DDF800E001B0704700BF8A
:0807D400408103420C1C0040AF
:100C400081B0CDF800E0FFF7C9FDDDF800E001B0AC
:020C50007047EB
:1007DC0081B0CDF800E000F009FA0549098801B1B3
:1007EC00FBE704490888DDF800E001B0704700BF62
:0807FC00000104420C20004042
:100E000081B0CDF800E0FFF70BFDDDF800E001B0A8
:020E1000704729
:1008200081B0CDF800E000F0F9F90549098801B17F
:10083000FBE704490888DDF800E001B0704700BF1D
:08084000008104420C24004079
:100D100081B0CDF800E0FFF725FDDDF800E001B07F
:020D200070471A
:1007640081B0CDF800E000F021FA0549098801B113
:10077400FBE704490888DDF800E001B0704700BFDA
:08078400000105420C280040B1
:100C680081B0CDF800E0FFF78DFDDDF800E001B0C0
:020C78007047C3
:10078C0081B0CDF800E000F01FFA0549098801B1ED
:10079C00FBE704490888DDF800E001B0704700BFB2
:0807AC00008105420C2C004005
:1011D80081B0CDF800E0FFF7DDFF81B2C1F3C03088
:1011E80008B9002000E00120DDF800E001B07047F8
:101A0C0083B0CDF800E00446002000235BB28DEDDE
:101A1C00020A0299B1F1FF3F05D170492046FFF748
:101A2C00E5FB0320D5E0012502A9C91C097801F0CA
:101A3C008001C9B269B102A9CA1C117881F0800178
:101A4C001170691CCAB22D212170641CD7B22646B4
:101A5C0001E02646EFB2029929B961493046FFF7F9
:101A6C00C5FB0020B5E00299B1F1FF4F05D15D49EE
:101A7C003046FFF7BBFBF8B2ABE08DF80430C3B2D5
:101A8C0034469DF90400DDED020AB7EE000AF4EECF
:101A9C00C00AF1EE10FA0ADADDED020AB2EE040A1F
:101AAC0020EE800A8DED020A401E40B2EBE7DDED20
:101ABC00020AB2EE040AF4EEC00AF1EE10FA0BDBE5
:101ACC00DDED020A484900EE101A20EE800A8DED79
:101ADC00020A401C40B2EAE702994900029102A9AD
:101AEC00C91C09787F39CDB202A9CA1C0121117019
:101AFC000299A940029102A9C91C097830312170C0
:101B0C00621C012803DB062801DC154603E02E21AC
:101B1C001170551C0123062144B2C8B210B302A99E
:101B2C00CA1C0021117002998A000299891802912D
:101B3C0002994900029102A9C91C09783031297017
:101B4C006D1C63B9611E49B24AB221B92E212970AC
:101B5C006D1C012100E0D9B254B2CBB2FFE7401E9C
:101B6C00C0B2DBE72A4660B2511E0978302901D198
:101B7C00521EF9E7511E09782E2901D1521EFFE79A
:101B8C0018B365211170521C002806DA2D21117032
:101B9C00521C414248B243B200E043B2D8B2D9B26F
:101BAC00092907D90A21B0FBF1F1C9B23031117002
:101BBC00531C00E013460A22B0FBF2F102FB1101A8
:101BCC00C9B230311970581C00E010460021017068
:101BDC000020DDF800E003B0704700BF7700002064
:0C1BEC007B0000207D000020CDCCCC3D13
:1011F80081B00091014600980B461C465A1C1546C2
:101208000346421C10461A78227022780AB12B46EF
:08121800F3E7084601B070473E
:101E1C0083B0CDF800E0374B374C384D384E394F46
:101E2C00394845F680213948018004F0070005281F
:101E3C0004D004F07000502800D00BE0012252B204
:101E4C0033480280002149B2324801803248028076
:101E5C0032480180802132480160019502961E466D
:101E6C0025463A46029B019C2E48006800F480707F
:101E7C0000B1F9E72C492D48016001951146324615
:101E8C001D46019B2748006800F4807000B1F9E7FB
:101E9C0027480160274801602749284801602848E5
:101EAC00026028480360200D00F0070028B944F0B8
:101EBC000301254801602A4610E044F4803040F0CC
:101ECC000301214801602A462048006830B1FFF721
:101EDC0099FE012149B21E480160F5E7002117481F
:101EEC00016042F4B44109480180DDF800E003B020
:101EFC00704700BF00000500330000000300010024
:101F0C00840000000010000080BB00000C48004062
:101F1C004CA509428CA5094248A5094288A509424D
:101F2C00143004E00400014001005A690000014033
:101F3C0010100140141001405A69000000040140C7
:101F4C0004040140080401400C04014004892042AF
:041F5C00048A204291
:101C100040F20907C0F2000700BF00BF7F1EFDD1E0
:081C200000BF00BF00BF7047C8
:101DE40081B002490248016001B0704780BB000025
:041DF400E8000020E3
:081DB00081B0FEE701B07047AD
:101DB80081B04EF68850CEF20000016841F47001FF
:101DC800016000BF00BF00BF00BFF1EE100A40F481
:0A1DD8004000E1EE100A01B0704770
:1024600000B5DFF824B0DFF824A0DFF824C0FFF7C0
:10247000C3FBDFF820B0DFF820A0DFF820C0FFF7B3
:10248000BBFB00BD704700BF0000002081000020A2
:10249000D0220000840000208C000020641C00007A
:1024FC0000B5DFF810B0DFF810A0FFF78FFB00BDC0
:0C250C00704700BF00000020FC00002011
:041C64001027000045
:041C680000366E01D3
:081CC8008D0E0000410C00002C
:101F6000204C00400400050500000000204C00400B
:101F7000080005050000000000000000000000004F
:101F80000000000000000000000000000000000051
:101F90000000000000000000000000000000000041
:101FA0000000000000000000000000000000000031
:101FB0000000000000000000000000000000000021
:101FC0000000000000000000000000000000000011
:101FD0000000000000000000000000000000000001
:101FE00000000000000000000000000000000000F1
:101FF00000000000000000000000000000000000E1
:1020000000000000000000000000000000000000D0
:1020100000000000000000000000000000000000C0
:1020200000000000000000000000000000000000B0
:0C203000000000000000000002000000A2
:10203C00004C00400400050500000000004C00406E
:10204C000800050500000000000000000000000072
:10205C000000000000000000000000000000000074
:10206C000000000000000000000000000000000064
:10207C000000000000000000000000000000000054
:10208C000000000000000000000000000000000044
:10209C000000000000000000000000000000000034
:1020AC000000000000000000000000000000000024
:1020BC000000000000000000000000000000000014
:1020CC000000000000000000000000000000000004
:1020DC0000000000000000000000000000000000F4
:1020EC0000000000000000000000000000000000E4
:1020FC0000000000000000000000000000000000D4
:0C210C00000000000000000002000000C5
:10211800004C00402000050500000000004C004075
:102128008000050500000000004C00404000050547
:102138000000000000000000000000000000000097
:102148000000000000000000000000000000000087
:102158000000000000000000000000000000000077
:102168000000000000000000000000000000000067
:102178000000000000000000000000000000000057
:102188000000000000000000000000000000000047
:102198000000000000000000000000000000000037
:1021A8000000000000000000000000000000000027
:1021B8000000000000000000000000000000000017
:1021C8000000000000000000000000000000000007
:1021D80000000000000000000000000000000000F7
:0C21E800000000000000000003000000E8
:1021F400004C00400004050500000000004C0040B5
:1022040000080505000000000000000000000000B8
:1022140000000000000000000000000000000000BA
:1022240000000000000000000000000000000000AA
:10223400000000000000000000000000000000009A
:10224400000000000000000000000000000000008A
:10225400000000000000000000000000000000007A
:10226400000000000000000000000000000000006A
:10227400000000000000000000000000000000005A
:10228400000000000000000000000000000000004A
:10229400000000000000000000000000000000003A
:1022A400000000000000000000000000000000002A
:1022B400000000000000000000000000000000001A
:0C22C4000000000000000000020000000C
:1022D0002D2D2D2D2D2D2D2D2D2D2D2D2D2D2D2D2E
:1022E0002D2D2D2D2D2D2D2D0020202020202020A6
:1022F00048616C6C2043757272656E7420202020DA
:022300002000BB
:102302002D2D2D2D2D2D2D2D2D2D2D2D2D2D2D2DFB
:102312002D2D2D2D2D2D2D2D002043757272656EC4
:0C23220074203A2000205B2041205D0068
:10232E002D2D2D2D2D2D2D2D2D2D2D2D2D2D2D2DCF
:10233E002D2D2D2D2D2D2D2D004E614E00300049B1
:03234E004E4600F8
:10235400111700008112000039120000451200001C
:10236400211200002D1200006912000075120000F5
:10237400511200005D120000151800002118000021
:10238400FFFFFFFFFFFFFFFFFFFFFFFFFFFFFFFF59
:10239400FFFFFFFFFFFFFFFFFFFFFFFFFFFFFFFF49
:1023A400FFFFFFFFFFFFFFFFFFFFFFFFFFFFFFFF39
:1023B40000001102CB024303E903E40496058606F8
:1023C4006308B008C709B80B070DF70DA90EA30FD2
:1023D400BE101A118A13531673176E1820190B1A8C
:1023E400591BEB1B4F1DB51E441F8D2010217C2152
:0823F4002F222C23D2234824E0
:1023FC000000010002000400080010002000110081
:10240C00210022004400250049004A00520092009D
:10241C0053005500AA006B00AD00B500B600D60005
:10242C00B700BB00DD00ED00EE00BF00DF00EF00E9
:08243C00F700FB00FD00FE00AB
:1024440000080000400000008000000000200000A0
:0C2454000000000000400000000000003C
:00000001FF
