:10000000FCFF0220651C00001D1C00001D1C0000E0
:100010001D1C00001D1C00001D1C00001D1C0000FC
:100020001D1C00001D1C00001D1C00001D1C0000EC
:100030001D1C00001D1C00001D1C00001D1C0000DC
:100040001D1C00001D1C00001D1C00001D1C0000CC
:100050001D1C00001D1C00001D1C00001D1C0000BC
:100060001D1C00001D1C00001D1C00001D1C0000AC
:100070001D1C00001D1C00001D1C00001D1C00009C
:100080001D1C00001D1C00001D1C00001D1C00008C
:100090001D1C00001D1C00001D1C00001D1C00007C
:1000A0001D1C00001D1C00001D1C00001D1C00006C
:1000B0001D1C00001D1C00001D1C00001D1C00005C
:1000C0001D1C00001D1C00001D1C00001D1C00004C
:1000D0001D1C00001D1C00001D1C00001D1C00003C
:1000E0001D1C00001D1C00001D1C00001D1C00002C
:1000F0001D1C00001D1C00001D1C00001D1C00001C
:100100001D1C00001D1C00001D1C00001D1C00000B
:100110001D1C00001D1C00001D1C00001D1C0000FB
:100120001D1C00001D1C00001D1C00001D1C0000EB
:100130001D1C00001D1C00001D1C00001D1C0000DB
:100140001D1C00001D1C00001D1C00001D1C0000CB
:100150001D1C00001D1C00001D1C00001D1C0000BB
:100160001D1C00001D1C00001D1C00001D1C0000AB
:100170001D1C00001D1C00001D1C00001D1C00009B
:100180001D1C00001D1C00001D1C00001D1C00008B
:080190001D1C00001D1C0000F5
:101C640000F010F8FFF7DCFF00F05CFCFFF7EEFF7C
:101C740000F018FCFFF7A8FFFFF77AFFFFF736FF25
:041C8400FCE7FEE794
:101ADC0081B01CF8019B0BF8019BBBEB0A0FF8D1F2
:041AEC0001B070478E
:101AA00081B04FF000094FF0000CBDEB0A0F04DCD1
:101AB000BDEB0B0F01DBD446EA464BF8049BBBEBB6
:101AC0000A0FFAD1BCEB0A0F05DDE246D9F800B0E7
:0A1AD0000BF1040BF1E701B07047C1
:101BCC0081B0CDF800E0012207210020FFF79CFE38
:101BDC00002202210020FFF797FE0C48014600204E
:101BEC00FFF784FD42F280510120FFF703FF40F61E
:101BFC00FE07C0F23D0700BF00BF7F1EFDD100BF36
:101C0C0000BF00BFDDF800E001B070479824000071
:1019140081B0CDF800E05FFA81F85FFA82F90FE058
:101924005FFA89F15FFA88F0FFF78EFD0DE05FFA48
:1019340089F15FFA88F0FFF7A3FC06E0012004E0D8
:101944000028EDD00128F2D0F8E7DDF800E001B07E
:021954007047DA
:10144C0081B0CDF800E0A9E0012905D14FF00401ED
:10145C006548FFF7C7FD04E04FF004016348FFF750
:10146C00CDFDBBE0012905D14FF400615E48FFF7CB
:10147C00B9FD04E04FF400615C48FFF7BFFDADE03F
:10148C00012905D14FF010015948FFF7ABFD04E0DD
:10149C004FF010015748FFF7B1FD9FE0012905D12E
:1014AC004FF020015248FFF79DFD04E04FF0200162
:1014BC005048FFF7A3FD91E0012905D14FF08001C1
:1014CC004B48FFF78FFD04E04FF080014948FFF7D0
:1014DC0095FD83E0012905D14FF040014448FFF709
:1014EC0081FD04E04FF040014248FFF787FD75E0B5
:1014FC00012905D14FF480613F48FFF773FD04E0EB
:10150C004FF480613D48FFF779FD67E0012905D173
:10151C004FF400513448FFF765FD04E04FF40051DF
:10152C003248FFF76BFD59E0012905D14FF004015A
:10153C003348FFF757FD04E04FF004013148FFF743
:10154C005DFD4BE0012905D14FF008012C48FFF758
:10155C0049FD04E04FF008012A48FFF74FFD3DE03C
:10156C00012905D14FF480712548FFF73BFD04E0BC
:10157C004FF480712348FFF741FD2FE0012905D17D
:10158C004FF400711E48FFF72DFD04E04FF400717D
:10159C001C48FFF733FD21E0012020E000283FF438
:1015AC0053AF01283FF45EAF02283FF469AF032824
:1015BC003FF474AF04283FF47FAF05283FF48AAFA3
:1015CC0006283FF495AF0728A0D00828ACD00928EE
:1015DC00B8D00A28C4D00B28D0D0DDE70020DDF825
:1015EC0000E001B0704700BF50F00F4040F00F40DA
:1015FC0090F00F4080F00F4010F00F4000F00F40C3
:08160C00D0F00F40C0F00F40C8
:100FF00081B0CDF800E0034AFFF76EFEDDF800E0B7
:0810000001B070470401020079
:100CD80081B0CDF800E0FFF717FEDDF800E001B0C5
:020CE800704753
:1009100083B0CDF800E006460C4615463046FFF79A
:100920007DFD40F2FF1306EA0300800900262246FF
:100930002946202E39D24FF0010303FA06F402EAC9
:1009400004031F46A3422ED104031A4B1C19B30003
:10095000E51801952C68184B04EA03032B60174B2C
:1009600001EA0304019B1B6843EA0404019B1C6029
:1009700001F48033B3F5803F15D08401104B1B196F
:100980001433029301F400333BB1FC43029B1B6818
:1009900003EA0404029B1C6005E0029B1B6843EA17
:1009A0000704029B1C60761CC3E7DDF800E003B07F
:1009B000704700BF009004400000FFFFFFFF0000F1
:0409C00000F00F40F4
:10041C0081B040F2FF1100EA01018909084600F29F
:10042C0009024FF0010101FA02F20449096841EA9C
:10043C00020202490A6001B0704700BF38800440D4
:1010080081B0CDF800E0034AFFF762FEDDF800E0AA
:0810180001B07047040104005F
:1012840081B0CDF800E0A9E0012905D14FF00801B3
:101294006548FFF7ABFE04E04FF008016348FFF731
:1012A400B1FEBBE0012905D14FF400215E48FFF7F0
:1012B4009DFE04E04FF400215C48FFF7A3FEADE07F
:1012C400012905D14FF010015948FFF78FFE04E0C2
:1012D4004FF010015748FFF795FE9FE0012905D113
:1012E4004FF020015248FFF781FE04E04FF0200147
:1012F4005048FFF787FE91E0012905D14FF08001A6
:101304004B48FFF773FE04E04FF080014948FFF7B4
:1013140079FE83E0012905D14FF040014448FFF7ED
:1013240065FE04E04FF040014248FFF76BFE75E0B4
:10133400012905D14FF010013F48FFF757FE04E0A3
:101344004FF010013D48FFF75DFE67E0012905D12C
:101354004FF480713448FFF749FE04E04FF4807184
:101364003248FFF74FFE59E0012905D14FF480318F
:101374003348FFF73BFE04E04FF480313148FFF778
:1013840041FE4BE0012905D14FF400312C48FFF711
:101394002DFE04E04FF400312A48FFF733FE3DE010
:1013A400012905D14FF480612548FFF71FFE04E0B1
:1013B4004FF480612348FFF725FE2FE0012905D172
:1013C4004FF400611E48FFF711FE04E04FF4006182
:1013D4001C48FFF717FE21E0012020E000283FF41D
:1013E40053AF01283FF45EAF02283FF469AF0328EE
:1013F4003FF474AF04283FF47FAF05283FF48AAF6D
:1014040006283FF495AF0728A0D00828ACD00928B7
:10141400B8D00A28C4D00B28D0D0DDE70020DDF8EE
:1014240000E001B0704700BF50F00F4040F00F40A3
:10143400D0F00F40C0F00F4010F00F4000F00F400C
:0814440090F00F4080F00F4012
:1016F80081B0CDF800E009E00846FFF787FF0AE06F
:101708000846FFF7A7FF06E0012004E00028F3D011
:0E1718000128F5D0F8E7DDF800E001B07047D9
:1016140081B0CDF800E0011D0A6801680846114652
:10162400034AFFF7AFFC0020DDF800E001B070478B
:04163400102300007F
:100F880081B0CDF800E003460C4615460648FFF749
:100F9800B9FE224619462B460348FFF7E9FEDDF85D
:0C0FA80000E001B0704700BF00C0024034
:100D0C0081B00F49884206D10E4A0F490A600F4A3A
:100D1C000F490A6012E00F49884206D10E4A0A496F
:100D2C000A600E4A0A490A6008E00D49884205D15A
:100D3C000C4A05490A600C4A05490A6001B0704723
:100D4C0000C00240990E0000D400FF1F610C00008F
:100D5C00D800FF1F00D002402D0F0000710B0000C7
:0C0D6C0000C00A404D0F0000E90B000021
:100D780084B0CDF800E0039101461046019002913D
:100D88001846FFF729FD0299019800F0100424097C
:100D98002346019002910846FFF744FD029902910B
:100DA8000846FFF7ABFC0299019800F000450C6873
:100DB8002C430C6000F080450C682C430C600C68D8
:100DC80044F440540C600D686FF4804405EA040450
:100DD8000C6001F20C059C002E1900F00F05346818
:100DE8002C43346001F20C059C002E1900F080653C
:100DF80034682C43346001F20C059C002E1900F075
:100E0800007534682C43346001F20C059C002E19DF
:100E180000F0807534682C43346001F20C059C00A6
:100E28002E1935686FF0F04405EA0404346001F2C5
:100E38000C059C002E1900F00F04E50634682C43BD
:100E480034600191039A0846D9B2FFF767FB01990C
:100E58000D686FF0010405EA04040C60DDF800E099
:040E680004B070471B
:1007E00081B0CDF800E040F2000C83464FEA8C0166
:1007F0000BEB01010968B1F1FF3F12D00BF134019D
:100800004FEA8C03C91809680A460BEB0301096813
:1008100008461146FFF71AFE0CF1010C1FFA8CFC7A
:0A082000E4E7DDF800E001B07047E6
:10044C0082B0CDF800E080464FEA581202F0070265
:10045C00914608F01F04A24693010D4AD3184FF0A1
:10046C000102A240019218460A46019900F02EFCA6
:10047C004FEA0933074AD3184FEA8A029C1808F44A
:10048C00E06322681A432260DDF800E002B0704796
:08049C0000F00F400090044045
:10082C0081B00B49884203D1012252B209490A60B6
:10083C000949884203D1012252B208490A60084989
:10084C00884203D1012252B206490A6001B07047B6
:10085C0000C00240B007904200D00240B407904262
:08086C0000C00A403006904272
:1007040081B002686FF4804102EA0101016001686E
:1007140041F00101016000F22C021149116000F264
:1007240008020021116000F20C024FF0F041116048
:1007340000F210024FF0F041116000F2300200218B
:10074400116000F2340200211160016841F440613B
:1007540001600268034942EA0101016001B0704787
:0807640000000A9A01400000A8
:1005240091B0CDF800E00F9010468DF840100E9079
:1005340001AB1846FFF7B4FF4FF0FF330D930023D0
:1005440006930023089301230A9300230B930023AB
:100554000593059B042B41D20D9B002B3ED0002319
:100564000793079B102B35D20D9B002B32D0012310
:100574000993099B032B29D20D9B3BB3099C029B36
:1005840003FB04F6059B9C00314B1B191D68079B5C
:100594009C00304B1B191B686B43B6FBF3F42046DD
:1005A4000E9BA3420ED30E9B1C1A0C940D9BA342CC
:1005B40008D90C9B0D93059B0693079B08930B90FE
:1005C400099B0A93099B5B1C0993D2E7079B5B1C5D
:1005D4000793C6E7059B5B1C0593BAE70F9B03F2E1
:1005E4000C049DF840309B00E5182C681A4B04EA73
:1005F40003032B600F9B03F20C049DF840309B0017
:10060400E5180A9B5B1EDC072B6823432B600F9BBA
:1006140003F20C049DF840309B00E518069B1B0474
:1006240003F440342B6823432B600F9B03F20C0428
:100634009DF840309B00E518089B03F00F042B68DD
:1006440023432B600B98DDF800E011B0704700BF26
:0C0654008824000048240000F0FFFC7F18
:1004A40081B0CDF800E00446FFF7B0FF40F2E83138
:1004B40000FB01F3194909680A0F1849096801F09A
:1004C4007061090EC8B21549096801F47001090D7B
:1004D400CDB21249096801F47021090CCEB2D1B22F
:1004E400491C09B259430F462360221D411C09B21D
:1004F400B7FBF1F1116004F20802691C09B2B7FB01
:10050400F1F1116004F20C02711C09B2B7FBF1F1B4
:100514001160DDF800E001B0704700BF4480044082
:0C04100001480068704700BFD000FF1FCB
:10165C0081B0CDF800E0011D0A680168084611460A
:10166C00034AFFF71FFD0020DDF800E001B07047D2
:04167C007C230000CB
:1010B00081B0CDF800E003460C4615460648FFF720
:1010C00025FE224619462B460348FFF755FEDDF85C
:0C10D00000E001B0704700BF00D00240FB
:101A000081B0CDF800E009E00846FFF715FE0AE0D6
:101A10000846FFF725FC06E0012004E00028F3D08B
:0E1A20000128F5D0F8E7DDF800E001B07047CE
:1016380081B0CDF800E0FFF70BFD044A04490A60C9
:101648000020DDF800E001B0704700BF3D10000049
:041658008400FF1FEC
:1010580081B0CDF800E003460A48FFF7DFFC0A4AF2
:1010680040F2000104B402B440F20002194640F212
:1010780000030448FFF7A2FC02B0DDF800E001B06D
:0C108800704700BF00C006403822000086
:100A240081B0304988420CD12F4A30490A60304A9B
:100A340030490A60304A31490A60314A31490A6012
:100A44004EE0314988420CD1304A28490A60304A84
:100A540028490A602F4A29490A602F4A29490A600D
:100A64003EE02E4988420CD12D4A20490A602D4A85
:100A740020490A602C4A21490A602C4A21490A600B
:100A84002EE02B4988420CD12A4A18490A602A4A86
:100A940018490A60294A19490A60294A19490A6009
:100AA4001EE0284988420CD1274A10490A60274A87
:100AB40010490A60264A11490A60264A11490A6007
:100AC4000EE0254988420BD1244A08490A60244A89
:100AD40008490A60234A09490A60234A09490A6005
:100AE40001B0704700A00640110F0000DC00FF1F9A
:100AF400FFFFFFFFE000FF1FFFFFFFFFE400FF1FFA
:100B0400FFFFFFFFE800FF1F00B00640F50E0000E6
:100B1400FFFFFFFFFFFFFFFFFFFFFFFF00C00640D7
:100B24003D100000FFFFFFFFFFFFFFFFFFFFFFFF80
:100B340000D0064021100000FFFFFFFFFFFFFFFF72
:100B4400FFFFFFFF00A00E4095100000FFFFFFFF16
:100B5400FFFFFFFFFFFFFFFF00B00E406D0F00001F
:0C0B6400FFFFFFFFFFFFFFFFFFFFFFFF91
:1009C40085B0CDF800E001900291ADF80C20ADF8AF
:1009D4001030BDF81440ADF814400698FFF7FEFE41
:1009E4000198FFF73BFE02990198FFF7BDFEBDF8A1
:1009F4000C100198FFF772FFBDF810100198FFF773
:100A040037FFBDF814100198FFF74EFF0198FFF768
:100A140075FF0198FFF76CFEDDF800E005B0704744
:1006600081B01849884204D1012252B216490A6069
:1006700026E01649884204D1012252B214490A6088
:100680001EE01449884204D1012252B212490A6084
:1006900016E01249884204D1012252B210490A6080
:1006A0000EE01049884204D1012252B20E490A607C
:1006B00006E00E49884203D1012252B20C490A6079
:1006C00001B0704700A00640A806904200B0064066
:1006D000AC06904200C00640B006904200D00640F2
:1006E000B406904200A00E402805904200B00E4093
:0406F0002C05904203
:10076C0085B0CDF800E08046894601AA1046FFF717
:10077C0093FE164A904503D0154A904500D001E0EF
:10078C00019800E002984FEA0912B0FBF2F291B224
:10079C0092B2130A9BB298F800201A4388F80020F2
:1007AC0008F10103CAB21A7043014FEA0912B3FBF4
:1007BC00F2F34A0192B29A1AD0B208F10A031A78EB
:1007CC0002431A70DDF800E005B0704700A0064047
:0407DC0000B0064023
:1008E00081B0841C23784FF6EF7212B203EA020241
:1008F0002270841C0B0122781A43227001B07047C9
:1008740081B001F0020262B1841C01F0020322780B
:100884001A432270841C01F0010322781A43227057
:1008940007E0841C23784FF6FD7212B203EA0202C9
:0608A400227001B0704754
:0C08AC0081B002780A43027001B070476E
:1009000081B0C21C117841F00401117001B0704730
:1006F40081B0C21C117841F00801117001B070473B
:1012600081B0CDF800E0FFF727FE044A04490A6088
:101270000020DDF800E001B0704700BF2110000041
:041280008400FF1FC8
:100EB80081B0CDF800E003460A48FFF7AFFD0A4AC3
:100EC80040F2000104B402B440F20002194640F2B4
:100ED80000030448FFF772FD02B0DDF800E001B03E
:0C0EE800704700BF00D00640A4220000AC
:101B740081B0CDF800E00F490F48FFF72BFF0F4865
:101B84000221FFF753FF0E480221FFF74FFF0D48D4
:101B94000221FFF74BFF40F6FE07C0F23D0700BFEE
:101BA40000BF7F1EFDD100BF00BF00BFDDF800E015
:101BB40001B07047A0240000E82300000000FF1FCC
:081BC4001900FF1F3200FF1F92
:1019D80081B0CDF800E003460846FFF7FDFB184646
:1019E800FFF706FC0120034C2468A047DDF800E05F
:0819F80001B07047C000FF1FA1
:0C12300001490860704700BF0808FE4339
:0C12240001490860704700BF2C08FE4321
:0C123C0001490860704700BF1010FE431D
:0C12540001490860704700BF1410FE4301
:0C12480001490860704700BF1C10FE4305
:0C16D40001490860704700BF1810FE4379
:0C16C80001490860704700BF2800FE4385
:0C16E00001490860704700BF3408FE4359
:0C16EC0001490860704700BF0818FE4369
:0C168C0001490860704700BF0C18FE43C5
:0C16800001490860704700BF2018FE43BD
:0C16B00001490860704700BF2418FE4389
:0C16A40001490860704700BF0C08FE43BD
:0C16BC0001490860704700BF4C08FE4365
:0C16980001490860704700BF1018FE43B5
:0C12180001490860704700BF1418FE4335
:0C110C0001490860704700BF1C18FE433A
:0C11180001490860704700BF1818FE4332
:0C11240001490860704700BF1000FE4346
:0C11000001490860704700BF2008FE4352
:0C10DC0001490860704700BF4010FE434F
:0C10E80001490860704700BF4410FE433F
:0C10F40001490860704700BF2810FE434F
:0C11D40001490860704700BF2C10FE436A
:1011E000026803490A60011D0A6802490A607047E3
:0811F000CC00FF1FC400FF1F2B
:1011F80000F230011C310A6803490A6000F2080154
:101208000A6802490A607047C800FF1FC000FF1F34
:101A300083B0CDF800E0024610460D228DF8082054
:101A40000A228DF809201FE0FFF7B4FB23E002789B
:101A50002AB10190FFF7AEFB0198401CF7E71AE0AE
:101A600002782AB10190FFF7A5FB0198401CF7E727
:101A700002AA1046FFF79EFB0DF109021046FFF780
:101A800099FB08E0062007E00029DDD00129DED01F
:101A90000229E5D0F6E70020DDF800E003B070474A
:1011B40081B0CDF800E00178CCB2A0B2034C246831
:1011C400A0470020DDF800E001B070478400FF1F55
:100E980081B0CDF800E082B24FF080610348FFF7DF
:100EA800E1FFDDF800E001B0704700BF00C002407C
:100E6C0081B000F22C044FF00043236000F23404F4
:100E7C0093B241EA0303236000F22C031C68C4F311
:0A0E8C00C07303B9F8E701B0704726
:100F2C0081B0CDF800E082B24FF080610348FFF74A
:100F3C0097FFDDF800E001B0704700BF00D0024021
:100F4C0081B0CDF800E082B24FF080610348FFF72A
:100F5C0087FFDDF800E001B0704700BF00C00A4019
:100F100081B0CDF800E081B20348FFF7E7FEDDF8CD
:0C0F200000E001B0704700BF00A00640D8
:100CEC0081B0ADF800100146BDF800000A1D137864
:100CFC00C3F3C01202B9F9E7CA1D107001B07047F6
:100EF40081B0CDF800E081B20348FFF7F5FEDDF8DC
:0C0F040000E001B0704700BF00B00640E4
:10103C0081B0CDF800E081B20348FFF751FEDDF836
:0C104C0000E001B0704700BF00C006408B
:1010200081B0CDF800E081B20348FFF75FFEDDF844
:0C10300000E001B0704700BF00D0064097
:1010940081B0CDF800E081B20348FFF725FEDDF80A
:0C10A40000E001B0704700BF00A00E404B
:100F6C0081B0CDF800E081B20348FFF7B9FEDDF89F
:0C0F7C0000E001B0704700BF00B00E4064
:101AF00081B0CDF800E0FFF72FFF194800ED000A94
:101B000040F6FE07C0F23D0700BF00BF7F1EFDD1BB
:101B100000BF00BF00BF124810ED000A1148FFF7D8
:101B200003FE11480121FFF783FF01210D48FFF754
:101B30007FFF0E480221FFF77BFF0D480221FFF7D0
:101B400077FF4CF2FE17C0F6EB3700BF00BF7F1ED9
:101B5000FDD100BF00BF00BFDDF800E001B070475D
:101B60008800FF1F8C00FF1F4B00FF1F5700FF1F47
:041B70005E00FF1FF5
:1019580083B0CDF800E04FF0000000EE100A8DEDE6
:10196800010AFFF705FCADF80800FFF7F1FBA0B985
:10197800BDF8081041F6FF7001EA000080B2A0F53A
:10198800805080B200EE900AF8EE600A0E4800EE31
:10199800100A20EE800A8DED010ADDED010A0B48E0
:1019A80000EE100AF4EEC00AF1EE10FA05DD4FF071
:1019B800000000EE100A8DED010A9DED010ADDF828
:1019C80000E003B0704700BFCDCC4C3C000048425B
:1011780082B0CDF800E000200B4C2468A04701A8FD
:101188000221FFF713FF0120074C2468A04701AA9A
:101198001078010289B2501C007841EA0000DDF89D
:0C11A80000E002B0704700BFC000FF1F55
:100FB40083B0CDF800E0ADF808100190BDF808301A
:100FC400BDF80820521EADF808204BB10020064C95
:100FD4002468A047019A1070019A521C0192EDE70F
:0C0FE400DDF800E003B07047C400FF1F00
:100C600081B0CDF800E01749096841F0010215494B
:100C70000A6014490A686FF4406102EA010141F414
:100C8000406210490A60104A10490A6010490A6817
:100C900010490A400E490A600A490A686FF00101CA
:100CA0000A4008490A6082B24FF08061054800F0AE
:100CB000DDF80448FFF700FE80B2DDF800E001B087
:100CC000704700BF00C0024000000A9A2CC00240DA
:080CD00008C00240FFFF000014
:1008B80081B000F22C010A68C2F3404101B9F8E79F
:1008C80000F2380109688BB200F22C024FF40031B3
:0808D800116098B201B07047F5
:100B700081B0CDF800E01749096841F0010215493C
:100B80000A6014490A686FF4406102EA010141F405
:100B9000406210490A60104A10490A6010490A6808
:100BA00010490A400E490A600A490A686FF00101BB
:100BB0000A4008490A6082B24FF08061054800F09F
:100BC00055F90448FFF778FE80B2DDF800E001B087
:100BD000704700BF00D0024000000A9A2CD00240AB
:080BE00008D00240FFFF0000F5
:100BE80081B0CDF800E01749096841F001021549C4
:100BF8000A6014490A686FF4406102EA010141F48D
:100C0800406210490A60104A10490A6010490A688F
:100C180010490A400E490A600A490A686FF0010142
:100C28000A4008490A6082B24FF08061054800F026
:100C380019F90448FFF73CFE80B2DDF800E001B086
:100C4800704700BF00C00A4000000A9A2CC00A4042
:080C580008C00A40FFFF000084
:1011580081B0CDF800E000F00BF881B2C1F3C030E7
:1011680008B9002000E00120DDF800E001B0704778
:1017280083B0CDF800E00446002000235BB28DEDC5
:10173800020A0299B1F1FF3F05D170492046FFF72F
:10174800F3FC0320D5E0012502A9C91C097801F0A2
:101758008001C9B269B102A9CA1C117881F080015F
:101768001170691CCAB22D212170641CD7B226469B
:1017780001E02646EFB2029929B961493046FFF7E0
:10178800D3FC0020B5E00299B1F1FF4F05D15D49C6
:101798003046FFF7C9FCF8B2ABE08DF80430C3B2AD
:1017A80034469DF90400DDED020AB7EE000AF4EEB6
:1017B800C00AF1EE10FA0ADADDED020AB2EE040A06
:1017C80020EE800A8DED020A401E40B2EBE7DDED07
:1017D800020AB2EE040AF4EEC00AF1EE10FA0BDBCC
:1017E800DDED020A484900EE101A20EE800A8DED60
:1017F800020A401C40B2EAE702994900029102A994
:10180800C91C09787F39CDB202A9CA1C01211170FF
:101818000299A940029102A9C91C097830312170A6
:10182800621C012803DB062801DC154603E02E2193
:101838001170551C0123062144B2C8B210B302A985
:10184800CA1C0021117002998A0002998918029114
:1018580002994900029102A9C91C097830312970FE
:101868006D1C63B9611E49B24AB221B92E21297093
:101878006D1C012100E0D9B254B2CBB2FFE7401E83
:10188800C0B2DBE72A4660B2511E0978302901D17F
:10189800521EF9E7511E09782E2901D1521EFFE781
:1018A80018B365211170521C002806DA2D21117019
:1018B800521C414248B243B200E043B2D8B2D9B256
:1018C800092907D90A21B0FBF1F1C9B230311170E9
:1018D800531C00E013460A22B0FBF2F102FB11018F
:1018E800C9B230311970581C00E01046002101704F
:1018F8000020DDF800E003B0704700BF7700FF1F4D
:0C1908007B00FF1F7D00FF1FCDCCCC3DFD
:1011300081B00091014600980B461C465A1C15468A
:101140000346421C10461A78227022780AB12B46B8
:08115000F3E7084601B0704707
:101C880090B072B697480190974802909748039091
:101C9800974804909748059097480690974807906A
:101CA800974808909748099097480A9097480B904A
:101CB80097480C90974998480D9098480E900D9821
:101CC80000F007000F9001F0010050B94CF22050CD
:101CD800934908804DF62810088040F2D2119148A7
:101CE80001809148007800F0010050B18F480078D9
:101CF80000F0080020B18D49087840F0080008700D
:101D080021E08B48006840F000518948016089480B
:101D1800006800F48070B0B9864801686FF47050AC
:101D280001EA000040F4407182480160814800687F
:101D380040F480717F4801607E4801686FF400704C
:101D480001407C480160AA217B4801700D9800F091
:101D5800100060B9794801786FF060000140774859
:101D6800017077480078012800D0FAE71CE00D9848
:101D780000F01000C0B10E997248814208D9602164
:101D88006E4801706E480078802800D0FAE70BE0B2
:101D98006A4801786FF0600001406848017068483F
:101DA8000078012800D0FAE704996748016067487D
:101DB80001686FF440200140029800F4402001437C
:101DC80062480160624801686FF44030014003983E
:101DD80000F4403001435E4801600F9830B10F981D
:101DE800012803D00F98022800D061E0019800F084
:101DF800800050B9089800F0400028B10B9800F016
:101E08000300002800D100E015E05248006840F4C3
:101E180000715048016050480168504801404E48E0
:101E28000160069800F0040028B14D4801684B484D
:101E380001404B4801600A994A48017005994A488F
:101E48000170059800F0040038B14848007800F0A7
:101E58001000002800D1F8E705E04448007800F0B9
:101E6800100000B1F9E74248007800F0BF01C9B29C
:101E7800069800F0FD0001433D480170079800F006
:101E8800E0013C48007800F01F0001433948017028
:101E98000199394801700B99384801700F98022848
:101EA80005D13348007840F0020131480170B8E0AC
:101EB800019800F0800020B90B9800F0030000B1F1
:101EC80065E02448006840F4007122480160224817
:101ED80001682248014020480160069800F004008B
:101EE80000F04EB80000000000000C0000000100E7
:101EF800000014012200000024000000000000007F
:101F08000200000046000000000000000000000081
:101F1800000000000000000007000000C0D401001D
:101F28000E2005400020054000F0074002D0074081
:101F38003C80044010D0034000E0074001E0074027
:101F480003E00740803801004480044000700440EA
:101F5800048004403880044048900440FFF8FFFEA5
:101F68004C900440084006400040064006400640A9
:101F78000140064003400640005006400C40064021
:101F880028B17A4801687A480140784801600A997E
:101F9800784801707848007800F0BF01C9B2069807
:101FA80000F0FD0001437448017001997348017005
:101FB8000B99734801700F98072805D1059840F0D0
:101FC80080017048017002E005996E48017006981A
:101FD80000F0040048B10B9800F0030028B96A48E3
:101FE800007800F0020000B9F9E7059800F0040055
:101FF80038B16548007800F01000002800D1F8E7F3
:1020080005E06148007800F0100000B1F9E7079892
:1020180000F0E0015D48007800F01F0001435B48D4
:102028000170089800F0BF0159480170099800F044
:10203800BF0158480170089800F0400028B1544882
:10204800007840F04001524801700F98052806D1E9
:102058004948007840F00201474801701BE00F989A
:10206800062803D00F98072800D014E049480078C4
:1020780040F04001474801704348007800F04000B4
:1020880000B9F9E70F98072805D13E48007800F015
:102098003F013C4801700F9818B10F98032800D0F1
:1020A8002CE03948007800F00C0000B1F9E73A4814
:1020B800006840F00101384801604FF000013748DE
:1020C80001604FF08001364801604FF00501354846
:1020D80001604FF00101324801603148006800F0AA
:1020E800800000B9F9E700212D4801602A480168FD
:1020F8006FF001000140284801602AE00F9801288C
:1021080003D00F98022800D007E01F48007800F09D
:102118000C00042800D0F8E71BE00F98042806D02C
:102128000F98062803D00F98052800D007E0164816
:10213800007800F00C00082800D0F8E709E00F98B4
:10214800072806D11048007800F00C000C2800D0B1
:10215800F8E7154801686FF00F0001400C9800F08F
:102168000F0001431048016010B070474C900440C4
:10217800FFF8FFFE084006400140064000500640B8
:102188000C4006400040064006400640034006401A
:1021980004400640054006403880044008000440DA
:0C21A80000000440040004404880044093
:101C500081B002490248016001B07047C0D4010060
:041C6000D000FF1F92
:081C1C0081B0FEE701B0704742
:101C240081B072B60849086840F47000086000BFCB
:101C340000BF00BF00BFF1EE100A40F44000E1EE27
:0C1C4400100A62B601B0704788ED00E0A5
:1024A80000B5DFF814B0DFF814A0DFF814C0FFF7A8
:1024B80011FB00BD704700BF0000FF1F8100FF1F18
:0424C800B42100003B
:1025280000B5DFF810B0DFF810A0FFF7B5FA00BD6E
:0C253800704700BF0000FF1FEC00FF1FF9
:100400000000000000000000FFFFFFFF02FDFFFFF3
:1021B4002D2D2D2D2D2D2D2D2D2D2D2D2D2D2D2D4B
:1021C4002D2D2D2D2D2D2D2D0020202020202020C3
:1021D40048616C6C2043757272656E7420202020F7
:0221E4002000D9
:1021E6002D2D2D2D2D2D2D2D2D2D2D2D2D2D2D2D19
:1021F6002D2D2D2D2D2D2D2D002043757272656EE2
:0C22060074203A2000205B2041205D0085
:102212002D2D2D2D2D2D2D2D2D2D2D2D2D2D2D2DEC
:102222002D2D2D2D2D2D2D2D004E614E00300049CE
:032232004E460015
:102238006303000062030000FFFFFFFF00000000CF
:102248000000000000000000000000000000000086
:102258000000000000000000000000000000000076
:10226800000000000000080000000800FFFFFFFF5A
:102278000000000000000000000000000000000056
:102288000000000000000000000000000000000046
:0C2298000000000000000000000000003A
:1022A4005103000050030000FFFFFFFF0000000087
:1022B400000000000000000000000000000000001A
:1022C400000000000000000000000000000000000A
:1022D400000000000000080000000800FFFFFFFFEE
:1022E40000000000000000000000000000000000EA
:1022F40000000000000000000000000000000000DA
:0C230400000000000000000000000000CD
:10231000450200004702000046020000FFFFFFFFE9
:1023200000000000000000000000000000000000AD
:10233000000000000000000000000000000000009D
:102340000000000000000800000008000000080075
:10235000FFFFFFFF00000000000000000000000081
:10236000000000000000000000000000000000006D
:0C23700000000000000000000000000061
:10237C00650700006707000066070000FFFFFFFF0E
:10238C000000000000000000000000000000000041
:10239C000000000000000000000000000000000031
:1023AC000000000000000800000008000000080009
:1023BC00FFFFFFFF00000000000000000000000015
:1023CC000000000000000000000000000000000001
:0C23DC00000000000000000000000000F5
:1023E80031120000251200003D12000055120000B5
:1023F80049120000D5160000C9160000E1160000B9
:10240800ED1600008D16000081160000B1160000C0
:10241800FFFFFFFFFFFFFFFFFFFFFFFFFFFFFFFFC4
:10242800FFFFFFFFFFFFFFFFFFFFFFFFFFFFFFFFB4
:10243800FFFFFFFFFFFFFFFFFFFFFFFFFFFFFFFFA4
:102448000200000004000000060000000800000070
:102458001000000020000000400000008000000084
:102468000001000000020000000400000008000055
:102478000010000000200000004000000080000064
:102488000200000003000000050000000700000033
:0824980040420F000700008222
:0824A000990E0000610C000020
:00000001FF
