:1000000011EF0DF00000000000EF00F00000000014
:0A0010000000000000000000F3D71C
:10001C0015C16AFF016A0150000A05E1000E68B0C3
:0C002C00010E016EF8D76ACF00F0120040
:1000380015C1C9FF016A0150000A05E1000EC7B0E9
:0C004800010E016EF8D7C9CF00F01200C5
:0E005400010114B102D0899801D089881200F0
:0E006200010114B102D08B9C01D08B8C1200D6
:0E007000010114B102D0899201D089821200E0
:0E007E00010114B102D08B9601D08B861200C6
:0E008C00010114B102D08B9801D08B881200B4
:0E009A00010114B102D08A9201D08A821200B4
:0E00A800010114B102D08B9201D08B821200A4
:0E00B600010114B102D08D9201D08D82120092
:0E00C400010114B102D08B9401D08B84120084
:0E00D200010114B102D08B9E01D08B8E120062
:0E00E000010114B102D08B9801D08B88120060
:0E00EE00ACB202D00000FCD714C1ADFF12006E
:0E00FC00010114B102D08B9601D08B86120048
:0E010A00010114B102D0899001D08980120049
:0E011800010114B102D08B9A01D08B8A120023
:1001260014C1C9FF016A0150000A05E1000EC7B0FB
:0C013600010E016EF8D7C9CF01F01200D5
:0E014200010114B102D08B9C01D08B8C1200F5
:0E015000010114B102D08B9001D08B801200FF
:0E015E00010114B102D08D9001D08D801200ED
:10016C0014C16AFF016A0150000A05E1000E68B073
:0C017C00010E016EF8D76ACF01F01200EE
:0E018800010114B102D08A9001D08A801200C9
:0E019600010114B102D08B9E01D08B8E12009D
:0E01A400010114B102D08B9601D08B8612009F
:0E01B200010114B102D08B9801D08B8812008D
:0E01C000010114B102D08B9A01D08B8A12007B
:0E01CE00010114B102D08B9601D08B86120075
:0E01DC00010114B102D08F9401D08F84120063
:0E01EA00010114B102D08A9401D08A8412005F
:0E01F800010114B102D08F9001D08F8012004F
:0E020600010114B102D08F9201D08F8212003C
:10021400F250026EF29E0500FF6A0150FE6E00501D
:08022400FD6E02BEF28E120015
:0E022C00010114B102D08B9801D08B88120012
:0E023A00010114B102D08B9601D08B86120008
:0E024800010114B102D08D9601D08D861200F6
:0E025600010114B102D0899401D089841200F4
:0E026400010114B102D08B9801D08B881200DA
:0E027200010114B102D08D9401D08D841200D0
:0E028000010114B102D08B9A01D08B8A1200BA
:0E028E00010114B102D08B9801D08B881200B0
:0E029C00010114B102D08B9601D08B861200A6
:1002AA000F0121B302D00000FBD714C11CFF1200BA
:0E02BA00026A016A006A086A036A000E1200F6
:1002C8000B840BAE6FEF01F0010E036E026A016A38
:0A02D800006A0A360232FF0E12001F
:0802E2000AAE029E000E12009C
:1002EA000EC112F10FC113F110C100F011C101F0DA
:1002FA00010E0101105F000E115B0050011014E0A5
:10030A00DAC0E1FFDBC0E2FFE66AD8C000F0D9C07C
:10031A0001F07BDF12C1E1FF13C1E2FF00C0E6FF7B
:0A032A000101124B132BE0D7120063
:10033400D6C0E1FFD7C0E2FFE66AD4C000F0D5C062
:1003440001F066DF0A0E01010E6F010E0F6F020E3F
:10035400106F000E116FC7DFD6C0E1FFD7C0E2FFF8
:10036400010EE66ED4C000F0D5C001F051DF0AC121
:100374000CF1000E01010D6F0CC101F0006A00C008
:100384000CF101C00DF10B510012000E011200C05E
:080394000CF101C00DF1120093
:10039C00380E0001E86F000EE96F150EEA6F010EC2
:1003AC00EB6F260EE46F010EE56F140EE66F010E77
:1003BC00E76F949A01010A51040A02E1948601D074
:1003CC0094969488C66AC79CC79E0A51C6120C5153
:1003DC00C6120B51C7120C5305E00D51000AD8B4CC
:0E03EC00C78C03D00D53D8A4C78CC68A12004C
:1003FA00EE0E0001E06F000EE16F140EE26F010EC7
:10040A00E36FFF0EF46FFF0EF56F000EF66F000E2E
:10041A00F76FFF0EF06FFF0EF16F000EF26F000E16
:10042A00F36FFF0EEC6FFF0EED6F000EEE6F000E16
:10043A00EF6FAC8A900EAB6E948E949C9EAA03D0FA
:08044A00AECF00F0FBD7120059
:100452000B820BAE33EF02F003680268016800689A
:080462000A360232FF0E1200FF
:10046A000C6A0E6A0250D8A44EEF02F001C002F0E4
:10047A0000C001F0006A0E860250D8A44EEF02F0C6
:10048A0001C002F0016A0E960E880250D8B460EFDD
:10049A0002F00E50035ED8A4D8A065EF02F0D890FF
:1004AA0002BE6AEF02F0003601360236032E55EF1D
:1004BA0002F065EF02F0010E0C6EFADE6DEF02F04B
:1004CA00020E0C6EFCDE6DEF02F0040E0C6E04DF01
:0204DA0012000E
:1004DC00AA0E0001E06F020EE16F140EE26F010E26
:1004EC00E36FFF0EF46FFF0EF56F000EF66F000E4C
:1004FC00F76FFF0EF06FFF0EF16F000EF26F000E34
:10050C00F36FFF0EEC6FFF0EED6F000EEE6F000E33
:10051C00EF6F0F01218B900E226F98849892A4AAF2
:0A052C0003D01DCF00F0FBD7120032
:1005360021D0CF0EAF6EAC945DDF6BD0670EAF6E81
:10054600AC9458DF66D0CF0EAF6EAC8453DF61D06B
:10055600670EAF6EAC844EDF5CD0440EAF6EAC84DB
:1005660049DF57D0220EAF6EAC8444DF52D0060E60
:10057600006E59D0000E006E0101091908E1005005
:10058600081905E1120E071902E10651C00AD1E069
:10059600000E006E091908E10050081905E1250E44
:1005A600071902E10651800AC9E0000E006E09191A
:1005B60008E10050081905E14B0E071902E1065142
:1005C600000AC1E0000E006E091908E10050081982
:1005D60005E1960E071902E10651000AB9E0000E80
:1005E600006E091908E10050081905E1E10E071926
:1005F60002E10651000AB1E00951000A08E108517A
:10060600010A05E10751C20A02E10651000AAAE001
:10061600AED7EE0E0001CC6F000ECD6F140ECE6F6E
:08062600010ECF6F006A120003
:10062E0021D0CF0EAF6EAC94E1DE6BD0670EAF6E05
:10063E00AC94DCDE66D0CF0EAF6EAC84D7DE61D06C
:10064E00670EAF6EAC84D2DE5CD0440EAF6EAC845F
:10065E00CDDE57D0220EAF6EAC84C8DE52D0060E61
:10066E00006E59D0000E006E0101091908E100500C
:10067E00081905E1120E071902E10651C00AD1E070
:10068E00000E006E091908E10050081905E1250E4B
:10069E00071902E10651800AC9E0000E006E091921
:1006AE0008E10050081905E14B0E071902E1065149
:1006BE00000AC1E0000E006E091908E10050081989
:1006CE0005E1960E071902E10651000AB9E0000E87
:1006DE00006E091908E10050081905E1E10E07192D
:1006EE0002E10651000AB1E00951000A08E1085181
:1006FE00010A05E10751C20A02E10651000AAAE009
:10070E00AED7EE0E0001CC6F000ECD6F140ECE6F75
:08071E00010ECF6F006A12000A
:1007260038D00F0120870D0E1F6F040E1E6F218516
:10073600D2DE7ED00F012087060E1F6F820E1E6F3F
:100746002185C9DE75D00F012087030E1F6F400E6D
:100756001E6F2185C0DE6CD00F012087010E1F6F32
:10076600A00E1E6F2185B7DE63D00F012087010E14
:100776001F6F150E1E6F2185AEDE5AD00F01208722
:100786001F6B8A0E1E6F2185A6DE52D0060E006EE6
:1007960059D0000E006E0101091908E10050081930
:1007A60005E1120E071902E10651C00ABAE0000E71
:1007B600006E091908E10050081905E1250E071910
:1007C60002E10651800AB6E0000E006E091908E142
:1007D6000050081905E14B0E071902E10651000AFF
:1007E600B2E0000E006E091908E10050081905E193
:1007F600960E071902E10651000AAEE0000E006EE1
:10080600091908E10050081905E1E10E071902E18E
:100816000651000AAAE00951000A08E10851010A36
:1008260005E10751C20A02E10651000AA7E0AED768
:10083600AA0E0001CC6F020ECD6F140ECE6F010E04
:06084600CF6F006A1200F2
:10084C0021D0CF0EAF6EAC94D2DD6BD0670EAF6EF5
:10085C00AC94CDDD66D0CF0EAF6EAC84C8DD61D06C
:10086C00670EAF6EAC84C3DD5CD0440EAF6EAC844F
:10087C00BEDD57D0220EAF6EAC84B9DD52D0060E61
:10088C00006E59D0000E006E0101091908E10050EC
:10089C00081905E1120E071902E10651C00AD1E050
:1008AC00000E006E091908E10050081905E1250E2B
:1008BC00071902E10651800AC9E0000E006E091901
:1008CC0008E10050081905E14B0E071902E1065129
:1008DC00000AC1E0000E006E091908E10050081969
:1008EC0005E1960E071902E10651000AB9E0000E67
:1008FC00006E091908E10050081905E1E10E07190D
:10090C0002E10651000AB1E00951000A08E1085160
:10091C00010A05E10751C20A02E10651000AAAE0E8
:10092C00AED7EE0E0001CC6F000ECD6F140ECE6F55
:08093C00010ECF6F006A1200EA
:100944005DD0010107B102D0929401D092840F01CD
:1009540025957AD0010107B102D0969601D09686EA
:1009640073D0010107B102D0969401D096846CD063
:10097400010107B102D0949601D0948665D001019B
:1009840007B102D0949801D094885ED0010107B1D8
:1009940002D0949A01D0948A57D0010107B102D0B1
:1009A400989001D0988050D0010107B102D093945F
:1009B40001D0938449D0010107B102D0989401D0A9
:1009C40098840F01239540D0010107B102D0989279
:1009D40001D098820F01239337D0010107B102D0CF
:1009E400949601D0948630D0010107B102D0949836
:1009F40001D0948829D0010E006E28D0010106513F
:100A0400000A9FE00651010AA5E00651020AA9E086
:100A14000651030AADE00651040AB1E00651050A85
:100A2400B5E00651060AB9E00651070ABDE00651D1
:100A3400080AC1E00651090AC7E006510A0ACDE0D6
:0E0A440006510B0AD1E0D7D7000E006E12004B
:100A520059D0010107B102D0929201D092820F01C6
:100A6200259376D0010107B102D0929801D09288E5
:100A72006FD0010107B102D0969201D0968268D060
:100A8200010107B102D0949601D0948661D0010190
:100A920007B102D0949801D094885AD0010107B1CD
:100AA20002D0949A01D0948A53D0010107B102D0A6
:100AB200949401D094844CD0010107B102D0939256
:100AC20001D0938245D0010107B102D0949E01D09A
:100AD200948E3ED0010107B102D0949C01D0948C37
:100AE20037D0010107B102D0949601D0948630D05C
:100AF200010107B102D0949801D0948829D0010E47
:100B0200006E28D001010651000AA3E00651010A35
:100B1200A9E00651020AADE00651030AB1E006510E
:100B2200040AB5E00651050AB9E00651060ABDE01D
:100B32000651070AC1E00651080AC5E00651090A32
:100B4200C9E006510A0ACDE006510B0AD1E0D7D717
:060B5200000E006E12000F
:100B580059D0010107B102D0929001D092800F01C3
:100B6800259176D0010107B102D0949001D09480EC
:100B78006FD0010107B102D0969001D0968068D05D
:100B8800010107B102D0949601D0948661D0010189
:100B980007B102D0949801D094885AD0010107B1C6
:100BA80002D0949A01D0948A53D0010107B102D09F
:100BB800949201D094824CD0010107B102D0939055
:100BC80001D0938045D0010107B102D0949E01D095
:100BD800948E3ED0010107B102D0949C01D0948C30
:100BE80037D0010107B102D0949601D0948630D055
:100BF800010107B102D0949801D0948829D0010E40
:100C0800006E28D001010651000AA3E00651010A2E
:100C1800A9E00651020AADE00651030AB1E0065107
:100C2800040AB5E00651050AB9E00651060ABDE016
:100C38000651070AC1E00651080AC5E00651090A2B
:100C4800C9E006510A0ACDE006510B0AD1E0D7D710
:060C5800000E006E120008
:100C5E0006C1F6FF07C1F7FF08C1F8FF0900F5CF7F
:100C6E000AF1040E01010625F66E000E0721F76E3D
:100C7E00000E0821F86E0900F5CF0BF1080E0625BF
:100C8E00F66E000E0721F76E000E0821F86E0900B1
:100C9E00F5CF0CF10C0E0625F66E000E0721F76E41
:100CAE00000E0821F86E0900F5CF0DF1CEEC01F023
:060CBE00000E006E1200A2
:100CC40006C1F6FF07C1F7FF08C1F8FF0900F5CF19
:100CD4000AF1040E01010625F66E000E0721F76ED7
:100CE400000E0821F86E0900F5CF0BF1080E062559
:100CF400F66E000E0721F76E000E0821F86E09004B
:100D0400F5CF0CF10C0E0625F66E000E0721F76EDA
:100D1400000E0821F86E0900F5CF0DF1CEEC01F0BC
:060D2400000E006E12003B
:100D2A0006C1F6FF07C1F7FF08C1F8FF0900F5CFB2
:100D3A000AF1040E01010625F66E000E0721F76E70
:100D4A00000E0821F86E0900F5CF0BF1080E0625F2
:100D5A00F66E000E0721F76E000E0821F86E0900E4
:100D6A00F5CF0CF10C0E0625F66E000E0721F76E74
:100D7A00000E0821F86E0900F5CF0DF1CEEC01F056
:060D8A00000E006E1200D5
:100D900006C104F007C105F004C002F005C003F06D
:100DA000044A052A08C100F009C101F00101084BFD
:100DB000092B00C0E9FF01C0EAFF02C0E1FF03C048
:100DC000E2FFEECFE6FF02C0E9FF03C0EAFFEE520A
:0E0DD00001E0E2D706C100F007C101F01200F9
:100DDE000D6A086A0050D8B4000C04180A6E0ABED8
:100DEE000D1E0B6A04AE02D0041E042A00AE02D001
:100DFE00001E002A005004100A6E0ABE1FD00450B6
:100E0E00085E003600340836045008260036060EFA
:100E1E000C6E00340836045000B0085E00A00826A0
:100E2E0000360C2EF6D700A008260BB015D00DAE4E
:100E3E00000C001E002A081E082A000C04AE09D061
:100E4E0000BE04D00050086E006AF1D7006A002A76
:100E5E00000C001E0B2AD3D7082A0450085CD8A415
:0E0E6E00E6D7086A002A00AEE2D7FF0C120099
:100E7C009AEC01F00F0E046E00C002F001C003F0FA
:100E8C00045005E003320232039EFF0FFAD7000E26
:100E9C00031802E1000E021802E1006A02D0010EF2
:040EAC00006E1200C2
:100EB0000050086E0150006E016A026A036A0B6AF4
:100EC0000C6A960E036E0A6A00C001F008C000F0BA
:0A0ED000086A026A35EC02F0120015
:100EDA00086A096A000E07620364F2EF07F002501B
:100EEA0006180A6E075003267E0ED8A083EF07F075
:100EFA00035ED8B0F7EF07F087EF07F0035ED8A0DC
:100F0A00FCEF07F0028E068E02C00EF001C00BF055
:100F1A0000C00DF000500402F4CF0CF0015005029D
:100F2A00F4CF00F0F3CF08F00402F3500C26F4508B
:100F3A000822000E00220D500502F3500C26F45030
:100F4A000822000E002202500402F3500826F45030
:100F5A00002202500502016A000E0122F350002607
:100F6A00F45001220D500602F3500826F4500022D4
:100F7A00026A000E012202220B500602F3500026DA
:100F8A00F4500122000E02220E500602F3500126EE
:100F9A00F450022202BEDAEF07F0083600360136B4
:100FAA0002360306D8B4FCEF07F0EDEF07F0D8805D
:100FBA00800E08640030000E002201220222D8A00E
:100FCA00EDEF07F0023201320032034AF7EF07F081
:100FDA000AAE029E000EFFEF07F0010E5DEC01F073
:100FEA00FFEF07F0020E29EC02F0FFEF07F0040E04
:060FFA0064EC01F012009E
:101000000A6A0350D8A40A800750D8A40A820A505A
:10101000D8B463EF08F0030AD8B41CEF08F00AB0A4
:1010200017EF08F006AE61EF08F05FEF08F002AED0
:101030005FEF08F061EF08F00250800B0A6E029E2D
:101040000650800B069E0A18D8B42DEF08F00A50FF
:10105000D8B45FEF08F061EF08F00750035CD8B434
:1010600037EF08F0D8A053EF08F059EF08F006501A
:10107000025CD8B441EF08F0D8A053EF08F059EF64
:1010800008F00550015CD8B44BEF08F0D8A053EF3E
:1010900008F059EF08F00450005CD8B463EF08F092
:1010A000D8B059EF08F00A52D8B461EF08F05FEFFA
:1010B00008F00A52D8B45FEF08F061EF08F0D8806A
:0E10C0001200D8901200D880D88412001200BE
:1010CE00CEC0E1FFCFC0E2FF06C1E9FF07C1EAFFD4
:1010DE00EECFE6FFCCC000F0CDC001F00AEC01F07F
:0410EE00006A120082
:1010F200300E01010625006E000E0721016E000E62
:101102000821026E1C0E0024F66E000E0120F76EFE
:10111200000E0220F86E0900F5CFDCF00900F5CFD1
:10112200DDF00900F5CFDEF00900F5CFDFF0080EA3
:101132000625F66E000E0721F76E000E0821F86EE6
:101142000900F5CFD4F00900F5CFD5F00900F5CFAD
:0A115200D6F00900F5CFD7F0120027
:10115C0006C1F6FF07C1F7FF08C1F8FF0900F5CF7C
:10116C00D0F00900F5CFD1F00900F5CFD2F009008D
:10117C00F5CFD3F0040E01010625F66E000E072103
:10118C00F76E000E0821F86E0900F5CFD8F00900B3
:10119C00F5CFD9F00900F5CFDAF00900F5CFDBF087
:0211AC0012002F
:1011AE0016D0F9C006F1FAC007F1CFDC1BD0F9C09A
:1011BE0006F1FAC007F146DC15D0F9C006F1FAC007
:1011CE0007F1A2EC04F00ED0010E006E0BD0000160
:1011DE00F851000AE6E0F851010AE9E0F851020A76
:0611EE00ECE0F2D7120054
:1011F4001BD0F9C006F1FAC007F1FBC008F193DD7A
:101204001ED0F9C006F1FAC007F1FBC008F158DDA1
:1012140016D0F9C006F1FAC007F1FBC008F11DDDD4
:101224000ED0010E006E0BD00001F851000AE1E06F
:10123400F851010AE6E0F851020AEBE0F2D7120095
:10124400FBC006F1FCC007F1FDC008F185DFF8C062
:1012540006F1F9C007F1FAC008F149DFD6C0E1FF91
:10126400D7C0E2FF010EE66ED4C000F0D5C001F095
:061274000AEC01F012007B
:10127A000101046B056BF8C000F1F9C001F1FAC075
:10128A0002F1FBC003F10351FF0A08E10251FF0A10
:10129A0005E10151FF0A02E10051FF0A0CE1FCC01D
:1012AA0006F1FDC007F1790E086F000E096F6BDDBC
:1012BA00030E006E01D2010E0001FE6F010102AFA2
:1012CA000FD0800E0219006E00C002F10001FE2B41
:1012DA00FCC0E1FFFDC0E2FF2D0EE66EFC4BFD2BCC
:1012EA00000E006E0101031908E10050021905E120
:1012FA000050011902E10051000A0BE1FCC006F19D
:10130A00FDC007F1770E086F000E096F3CDD006A19
:10131A00D3D10351FF0A08E10251000A05E1015144
:10132A00000A02E10051000A0CE1FCC006F1FDC00E
:10133A0007F1670E086F000E096F25DDFEC000F089
:10134A00BBD1000E046E000E056E000E066E7F0EF7
:10135A00076E00C100F001C101F002C102F003C131
:10136A0003F049DE010ED8B0000E006E00521BE0F9
:10137A0000C100F001C101F002C102F003C103F093
:10138A00000E046E000E056E200E066E820E076EAB
:10139A009FDD00C000F101C001F102C002F103C0EB
:1013AA0003F10507CED7000E046E000E056E200E5F
:1013BA00066E820E076E00C100F001C101F002C183
:1013CA0002F003C103F017DE000ED8B0010E006E62
:1013DA0000521BE000C100F001C101F002C102F09D
:1013EA0003C103F0CD0E046ECC0E056E4C0E066ED4
:1013FA007B0E076E6DDD00C000F101C001F102C075
:10140A0002F103C003F1052BCED7FF0E0015086EBB
:10141A00FF0E0115096E7F0E02150A6E000E0315E6
:10142A000B6E08C004F009C005F00AC006F00BC034
:10143A0007F004360490053606360736000E001506
:10144A00006E000E0115016E000E0215026EFF0EEF
:10145A000315036E00C000F101C001F102C002F1E0
:10146A0003C003F104500011006E05500111016E12
:10147A0006500211026E07500311036E00C000F1FC
:10148A0001C001F102C002F103C003F17F0E035D46
:10149A00006E00C0FFF0010E036F00C004F000C12F
:1014AA0000F001C101F002C102F003C103F00450CF
:1014BA0007E000360090013602360336FF0FF8D7F0
:1014CA0000C000F101C001F102C002F103C003F142
:1014DA00FCC0E1FFFDC0E2FF0351300FE66E0001E0
:1014EA00FC4BFD2B800E01010519006E800E010ACE
:1014FA00005C08E3800E060A006E800E0519005C87
:10150A0001E30CD0FCC0E1FFFDC0E2FF2E0EE66E47
:10151A000001FC4BFD2B010E0101046F060E0001B8
:10152A00FF6FFF51000A5AE00101036B00C100F08E
:10153A0001C101F002C102F003C103F000360090BC
:10154A00013602360336003600900136023603367B
:10155A0000510026015101220251022203510322A5
:10156A0000C000F101C001F102C002F103C003F1A1
:10157A0000C100F001C101F002C102F003C103F091
:10158A000036009001360236033600C000F101C071
:10159A0001F102C002F103C003F1FCC0E1FFFDC08A
:1015AA00E2FF0351300FE66E0001FC4BFD2B0101F7
:1015BA000451000A10E105070551000A0CE1FCC0BC
:1015CA00E1FFFDC0E2FF2E0EE66E0001FC4BFD2B93
:1015DA00010E0101046F0001FF07A3D7FF0EFC25CE
:1015EA00E96EFF0EFD21EA6EEE50300A05E1010EAA
:1015FA00FC5F000EFD5BF2D7FF0EFC25E96EFF0EC5
:10160A00FD21EA6EEE502E0A04E1010EFC5F000E87
:10161A00FD5B01010551000A49E0FCC0E1FFFDC084
:10162A00E2FF650EE66E0001FC4BFD2B800E010108
:10163A000519006E800E000A005C0DE2FCC0E1FF95
:10164A00FDC0E2FF2D0EE66E0001FC4BFD2B0101F1
:10165A0005510008056F05C1FFF0800E090A006EEA
:10166A00800E0519005C10E20A0E046EFFC000F03D
:10167A00EFEC06F0FCC0E1FFFDC0E2FF0050300FC6
:10168A00E66E0001FC4BFD2B00010A0E046EFFC042
:10169A0000F0EFEC06F008C000F0FCC0E1FFFDC06E
:1016AA00E2FF0050300FE66EFC4BFD2BFCC0E1FF61
:0A16BA00FDC0E2FFE66A006A1200BC
:1016C4000001F86BF96BFA6BFB6B9AEC01F000C04C
:1016D400FCF001C0FDF03EEC07F000522FE1FF0EDC
:1016E4000001FC15006EFD511F0B016E00C0FCF0E3
:1016F40001C0FDF0000E005E100E015A00C0FCF0A7
:1017040001C0FDF058EC07F000C0F8F001C0F9F09A
:1017140002C0FAF003C0FBF0CD0E046ECC0E056ED1
:101724004C0E066E780E076E6DEC07F000C0F8F0F4
:1017340001C0F9F002C0FAF003C0FBF0F8C004F0F5
:10174400F9C005F0FAC006F0FBC007F0000E006E09
:10175400000E016E480E026E840E036E4FDC010E05
:10176400D8B0000E006E005205E00001F86BF96B72
:10177400FA6BFB6BF8C000F0F9C001F0FAC002F09C
:06178400FBC003F012009F
:10178A002FD0F9C006F1FAC007F1FBC008F1FCC07E
:10179A0009F19BEC02F032D0F9C006F1FAC007F168
:1017AA00FBC008F1FCC009F126EC04F027D0F9C00F
:1017BA0006F1FAC007F1FBC008F1FCC009F193EC8D
:1017CA0003F01CD0F9C006F1FAC007F1FBC008F11A
:1017DA00FCC009F117EC03F011D0010E006E0ED017
:1017EA000001F851000ACDE0F851010AD5E0F8519C
:0E17FA00020ADDE0F851100AE5E0EFD7120018
:10180800F8C0FBF0F9C0FCF00D0E0001FD6F0A0EE8
:10181800FE6F35D0FBC006F1FCC007F154DC3AD0AE
:10182800FBC0E9FFFCC0EAFFEE5209E0FBC006F18D
:10183800FCC007F148DC0001FB4BFC2BF1D72AD098
:10184800FBC0E9FFFCC0EAFFEE5209E0FBC006F16D
:10185800FCC007F138DC0001FB4BFC2BF1D7FD0E77
:101868000101066F000E076F2EDCFE0E0101066FE8
:10187800000E076F28DC0ED0060E006E0CD000019B
:10188800FA51000AC7E0FA51010ACAE0FA51020AFD
:08189800D7E0F2D7006A12004C
:1018A0000001F86B070EF96F010EFA6F80DC000182
:1018B000F86B020EF96FFA6B7ADC0001F86B110E0F
:1018C000F96F1B0EFA6F000EFB6F94DC010E000126
:1018D000F86F800EF96F250EFA6F000EFB6FFC6F2C
:1018E00054DF090E0B6E1E0E0C6EE40E0D6E0D2EE7
:0E18F000FED70C2EFCD70B2EFAD700001200EC
:1018FE000900F5CFE6FF0006FBE10106F9E1120053
:10190E00B10E0001F86F1A0EF96F000EFA6F210E6C
:10191E00FB6F1B0EFC6F000EFD6F8DDC4E0E00017B
:10192E00F86F000EF96F020EFA6F67DF350E0001C9
:10193E00F86F000EF96F020EFA6F5FDF7D0E000179
:10194E00F86F000EF96F020EFA6F57DF090E0B6E6D
:10195E001E0E0C6EE40E0D6E0D2EFED70C2EFCD749
:08196E000B2EFAD70000120055
:10197600A6DE00C096F001C097F002C098F003C042
:1019860099F0090E0B6E1E0E0C6EE40E0D6E0D2EEA
:10199600FED70C2EFCD70B2EFAD7000096C0F8F017
:1019A60097C0F9F098C0FAF099C0FBF09A0E0001C2
:1019B600FC6F000EFD6F5EDC6B0E0001F86F000E13
:1019C600F96F010EFA6F1DDF9A0E0001F86F000E17
:1019D600F96F010EFA6F15DF2E0E0001F86F000E7B
:1019E600F96F020EFA6F0DDF150E0001F86F000E8B
:1019F600F96F020EFA6F05DF020E0A6E960E0B6E77
:101A0600D80E0C6E080E0D6E0D2EFED70C2EFCD7C2
:0C1A16000B2EFAD70A2EF8D700001200A1
:0E1A220095EC0DF03CDF72DFA5DFFED7FFD79D
:101B2A0010EE15F0810E006E010E016E300EF66E8B
:0E1B3A001A0EF76E000EF86E7FEC0CF0120023
:101A30002D2D2D2D2D2D2D2D2D2D2D2D2D2D2D2DD6
:091A40002D2D2D2D2D2D2D2D0035
:071A4900205B2041205D003D
:101A50002020202020202048616C6C204375727269
:091A6000656E7420202020200096
:101A69002D2D2D2D2D2D2D2D2D2D2D2D2D2D2D2D9D
:091A79002D2D2D2D2D2D2D2D00FC
:041A8200494E460083
:0C1A86002043757272656E74203A2000D7
:021A9200300022
:041A94004E614E0051
:101A98002D2D2D2D2D2D2D2D2D2D2D2D2D2D2D2D6E
:091AA8002D2D2D2D2D2D2D2D00CD
:101AB1000A011401500114015E011401A401140171
:101AC100B2011401C0011401A8001401880114011C
:101AD10096011401420114017E0014018C001401CD
:101AE100FFFFFFFFFFFFFFFFFFFFFFFFFFFFFFFF05
:101AF100FFFFFFFFFFFFFFFFFFFFFFFFFFFFFFFFF5
:101B0100FFFFFFFFFFFFFFFFFFFFFFFFFFFFFFFFE4
:101B110001000000000000000000000000000000C3
:081B2100260114013800150132
:020000040030CA
:0E00000015137F7CF98B91FFFFC0FFE0FF40DE
:00000001FF
